{
    "_format": "hh-sol-artifact-1",
    "contractName": "BoletoNFT",
    "sourceName": "contracts/BoletoNFT.sol",
    "abi": [
        {
            "anonymous": false,
            "inputs": [
                {
                    "indexed": true,
                    "internalType": "address",
                    "name": "account",
                    "type": "address"
                },
                {
                    "indexed": true,
                    "internalType": "address",
                    "name": "operator",
                    "type": "address"
                },
                {
                    "indexed": false,
                    "internalType": "bool",
                    "name": "approved",
                    "type": "bool"
                }
            ],
            "name": "ApprovalForAll",
            "type": "event"
        },
        {
            "anonymous": false,
            "inputs": [
                {
                    "indexed": true,
                    "internalType": "address",
                    "name": "previousOwner",
                    "type": "address"
                },
                {
                    "indexed": true,
                    "internalType": "address",
                    "name": "newOwner",
                    "type": "address"
                }
            ],
            "name": "OwnershipTransferred",
            "type": "event"
        },
        {
            "anonymous": false,
            "inputs": [
                {
                    "indexed": true,
                    "internalType": "address",
                    "name": "operator",
                    "type": "address"
                },
                {
                    "indexed": true,
                    "internalType": "address",
                    "name": "from",
                    "type": "address"
                },
                {
                    "indexed": true,
                    "internalType": "address",
                    "name": "to",
                    "type": "address"
                },
                {
                    "indexed": false,
                    "internalType": "uint256[]",
                    "name": "ids",
                    "type": "uint256[]"
                },
                {
                    "indexed": false,
                    "internalType": "uint256[]",
                    "name": "values",
                    "type": "uint256[]"
                }
            ],
            "name": "TransferBatch",
            "type": "event"
        },
        {
            "anonymous": false,
            "inputs": [
                {
                    "indexed": true,
                    "internalType": "address",
                    "name": "operator",
                    "type": "address"
                },
                {
                    "indexed": true,
                    "internalType": "address",
                    "name": "from",
                    "type": "address"
                },
                {
                    "indexed": true,
                    "internalType": "address",
                    "name": "to",
                    "type": "address"
                },
                {
                    "indexed": false,
                    "internalType": "uint256",
                    "name": "id",
                    "type": "uint256"
                },
                {
                    "indexed": false,
                    "internalType": "uint256",
                    "name": "value",
                    "type": "uint256"
                }
            ],
            "name": "TransferSingle",
            "type": "event"
        },
        {
            "anonymous": false,
            "inputs": [
                {
                    "indexed": false,
                    "internalType": "string",
                    "name": "value",
                    "type": "string"
                },
                {
                    "indexed": true,
                    "internalType": "uint256",
                    "name": "id",
                    "type": "uint256"
                }
            ],
            "name": "URI",
            "type": "event"
        },
        {
            "inputs": [
                {
                    "internalType": "address",
                    "name": "account",
                    "type": "address"
                },
                {
                    "internalType": "uint256",
                    "name": "id",
                    "type": "uint256"
                }
            ],
            "name": "balanceOf",
            "outputs": [
                {
                    "internalType": "uint256",
                    "name": "",
                    "type": "uint256"
                }
            ],
            "stateMutability": "view",
            "type": "function"
        },
        {
            "inputs": [
                {
                    "internalType": "address[]",
                    "name": "accounts",
                    "type": "address[]"
                },
                {
                    "internalType": "uint256[]",
                    "name": "ids",
                    "type": "uint256[]"
                }
            ],
            "name": "balanceOfBatch",
            "outputs": [
                {
                    "internalType": "uint256[]",
                    "name": "",
                    "type": "uint256[]"
                }
            ],
            "stateMutability": "view",
            "type": "function"
        },
        {
            "inputs": [
                {
                    "internalType": "address",
                    "name": "account",
                    "type": "address"
                },
                {
                    "internalType": "uint256",
                    "name": "init",
                    "type": "uint256"
                },
                {
                    "internalType": "uint256",
                    "name": "last",
                    "type": "uint256"
                }
            ],
            "name": "balanceRange",
            "outputs": [
                {
                    "internalType": "uint256[]",
                    "name": "",
                    "type": "uint256[]"
                },
                {
                    "internalType": "uint256[]",
                    "name": "",
                    "type": "uint256[]"
                }
            ],
            "stateMutability": "view",
            "type": "function"
        },
        {
            "inputs": [
                {
                    "internalType": "uint256",
                    "name": "id",
                    "type": "uint256"
                }
            ],
            "name": "exists",
            "outputs": [
                {
                    "internalType": "bool",
                    "name": "",
                    "type": "bool"
                }
            ],
            "stateMutability": "view",
            "type": "function"
        },
        {
            "inputs": [
                {
                    "internalType": "string",
                    "name": "uri",
                    "type": "string"
                }
            ],
            "name": "initialize",
            "outputs": [],
            "stateMutability": "nonpayable",
            "type": "function"
        },
        {
            "inputs": [
                {
                    "internalType": "address",
                    "name": "account",
                    "type": "address"
                },
                {
                    "internalType": "address",
                    "name": "operator",
                    "type": "address"
                }
            ],
            "name": "isApprovedForAll",
            "outputs": [
                {
                    "internalType": "bool",
                    "name": "",
                    "type": "bool"
                }
            ],
            "stateMutability": "view",
            "type": "function"
        },
        {
            "inputs": [
                {
                    "internalType": "address",
                    "name": "account",
                    "type": "address"
                },
                {
                    "internalType": "uint256",
                    "name": "id",
                    "type": "uint256"
                }
            ],
            "name": "mint",
            "outputs": [],
            "stateMutability": "nonpayable",
            "type": "function"
        },
        {
            "inputs": [
                {
                    "internalType": "address",
                    "name": "to",
                    "type": "address"
                },
                {
                    "internalType": "uint256[]",
                    "name": "ids",
                    "type": "uint256[]"
                }
            ],
            "name": "mintBatch",
            "outputs": [],
            "stateMutability": "nonpayable",
            "type": "function"
        },
        {
            "inputs": [],
            "name": "owner",
            "outputs": [
                {
                    "internalType": "address",
                    "name": "",
                    "type": "address"
                }
            ],
            "stateMutability": "view",
            "type": "function"
        },
        {
            "inputs": [],
            "name": "renounceOwnership",
            "outputs": [],
            "stateMutability": "nonpayable",
            "type": "function"
        },
        {
            "inputs": [
                {
                    "internalType": "address",
                    "name": "from",
                    "type": "address"
                },
                {
                    "internalType": "address",
                    "name": "to",
                    "type": "address"
                },
                {
                    "internalType": "uint256[]",
                    "name": "ids",
                    "type": "uint256[]"
                },
                {
                    "internalType": "uint256[]",
                    "name": "amounts",
                    "type": "uint256[]"
                },
                {
                    "internalType": "bytes",
                    "name": "data",
                    "type": "bytes"
                }
            ],
            "name": "safeBatchTransferFrom",
            "outputs": [],
            "stateMutability": "nonpayable",
            "type": "function"
        },
        {
            "inputs": [
                {
                    "internalType": "address",
                    "name": "from",
                    "type": "address"
                },
                {
                    "internalType": "address",
                    "name": "to",
                    "type": "address"
                },
                {
                    "internalType": "uint256",
                    "name": "id",
                    "type": "uint256"
                },
                {
                    "internalType": "uint256",
                    "name": "amount",
                    "type": "uint256"
                },
                {
                    "internalType": "bytes",
                    "name": "data",
                    "type": "bytes"
                }
            ],
            "name": "safeTransferFrom",
            "outputs": [],
            "stateMutability": "nonpayable",
            "type": "function"
        },
        {
            "inputs": [
                {
                    "internalType": "address",
                    "name": "operator",
                    "type": "address"
                },
                {
                    "internalType": "bool",
                    "name": "approved",
                    "type": "bool"
                }
            ],
            "name": "setApprovalForAll",
            "outputs": [],
            "stateMutability": "nonpayable",
            "type": "function"
        },
        {
            "inputs": [
                {
                    "internalType": "bytes4",
                    "name": "interfaceId",
                    "type": "bytes4"
                }
            ],
            "name": "supportsInterface",
            "outputs": [
                {
                    "internalType": "bool",
                    "name": "",
                    "type": "bool"
                }
            ],
            "stateMutability": "view",
            "type": "function"
        },
        {
            "inputs": [
                {
                    "internalType": "uint256",
                    "name": "id",
                    "type": "uint256"
                }
            ],
            "name": "totalSupply",
            "outputs": [
                {
                    "internalType": "uint256",
                    "name": "",
                    "type": "uint256"
                }
            ],
            "stateMutability": "view",
            "type": "function"
        },
        {
            "inputs": [
                {
                    "internalType": "address",
                    "name": "newOwner",
                    "type": "address"
                }
            ],
            "name": "transferOwnership",
            "outputs": [],
            "stateMutability": "nonpayable",
            "type": "function"
        },
        {
            "inputs": [
                {
                    "internalType": "uint256",
                    "name": "",
                    "type": "uint256"
                }
            ],
            "name": "uri",
            "outputs": [
                {
                    "internalType": "string",
                    "name": "",
                    "type": "string"
                }
            ],
            "stateMutability": "view",
            "type": "function"
        }
    ],
    "bytecode": "0x608060405234801561001057600080fd5b506120b0806100206000396000f3fe608060405234801561001057600080fd5b506004361061010a5760003560e01c806375ceb341116100a2578063bd85b03911610071578063bd85b0391461024c578063e985e9c51461026c578063f242432a146102a8578063f2fde38b146102bb578063f62d1888146102ce57600080fd5b806375ceb341146101ea5780638da5cb5b146101fd578063913440be14610218578063a22cb4651461023957600080fd5b806340c10f19116100de57806340c10f191461018d5780634e1273f4146101a05780634f558e79146101c0578063715018a6146101e257600080fd5b8062fdd58e1461010f57806301ffc9a7146101355780630e89341c146101585780632eb2c2d614610178575b600080fd5b61012261011d36600461193a565b6102e1565b6040519081526020015b60405180910390f35b610148610143366004611a5d565b61037a565b604051901515815260200161012c565b61016b610166366004611ae7565b6103cc565b60405161012c9190611c6c565b61018b6101863660046117a4565b610460565b005b61018b61019b36600461193a565b6104f7565b6101b36101ae366004611997565b61056d565b60405161012c9190611c2b565b6101486101ce366004611ae7565b600090815260976020526040902054151590565b61018b610696565b61018b6101f83660046118b1565b6106cc565b60c9546040516001600160a01b03909116815260200161012c565b61022b610226366004611964565b6107e9565b60405161012c929190611c3e565b61018b6102473660046118fe565b6108f3565b61012261025a366004611ae7565b60009081526097602052604090205490565b61014861027a366004611771565b6001600160a01b03918216600090815260666020908152604080832093909416825291909152205460ff1690565b61018b6102b636600461184d565b6108fe565b61018b6102c9366004611756565b610985565b61018b6102dc366004611a97565b610a20565b60006001600160a01b0383166103525760405162461bcd60e51b815260206004820152602b60248201527f455243313135353a2062616c616e636520717565727920666f7220746865207a60448201526a65726f206164647265737360a81b60648201526084015b60405180910390fd5b5060009081526065602090815260408083206001600160a01b03949094168352929052205490565b60006001600160e01b03198216636cdb3d1360e11b14806103ab57506001600160e01b031982166303a24d0760e21b145b806103c657506301ffc9a760e01b6001600160e01b03198316145b92915050565b6060606780546103db90611efb565b80601f016020809104026020016040519081016040528092919081815260200182805461040790611efb565b80156104545780601f1061042957610100808354040283529160200191610454565b820191906000526020600020905b81548152906001019060200180831161043757829003601f168201915b50505050509050919050565b6001600160a01b03851633148061047c575061047c853361027a565b6104e35760405162461bcd60e51b815260206004820152603260248201527f455243313135353a207472616e736665722063616c6c6572206973206e6f74206044820152711bdddb995c881b9bdc88185c1c1c9bdd995960721b6064820152608401610349565b6104f08585858585610af2565b5050505050565b60c9546001600160a01b031633146105215760405162461bcd60e51b815260040161034990611d56565b6000818152609760205260409020541561054d5760405162461bcd60e51b815260040161034990611d8b565b6105698282600160405180602001604052806000815250610c9f565b5050565b606081518351146105d25760405162461bcd60e51b815260206004820152602960248201527f455243313135353a206163636f756e747320616e6420696473206c656e677468604482015268040dad2e6dac2e8c6d60bb1b6064820152608401610349565b600083516001600160401b038111156105ed576105ed611fa9565b604051908082528060200260200182016040528015610616578160200160208202803683370190505b50905060005b845181101561068e5761066185828151811061063a5761063a611f93565b602002602001015185838151811061065457610654611f93565b60200260200101516102e1565b82828151811061067357610673611f93565b602090810291909101015261068781611f62565b905061061c565b509392505050565b60c9546001600160a01b031633146106c05760405162461bcd60e51b815260040161034990611d56565b6106ca6000610d77565b565b60c9546001600160a01b031633146106f65760405162461bcd60e51b815260040161034990611d56565b600081516001600160401b0381111561071157610711611fa9565b60405190808252806020026020018201604052801561073a578160200160208202803683370190505b50905060005b82518110156107c85761077a83828151811061075e5761075e611f93565b6020026020010151600090815260976020526040902054151590565b156107975760405162461bcd60e51b815260040161034990611d8b565b60018282815181106107ab576107ab611f93565b6020908102919091010152806107c081611f62565b915050610740565b506107e483838360405180602001604052806000815250610dc9565b505050565b606080600080846001600160401b0381111561080757610807611fa9565b604051908082528060200260200182016040528015610830578160200160208202803683370190505b5090506000856001600160401b0381111561084d5761084d611fa9565b604051908082528060200260200182016040528015610876578160200160208202803683370190505b509050865b8681116108e55761088c89826102e1565b935083156108d357808382815181106108a7576108a7611f93565b602002602001018181525050838282815181106108c6576108c6611f93565b6020026020010181815250505b806108dd81611f62565b91505061087b565b509097909650945050505050565b610569338383610f24565b6001600160a01b03851633148061091a575061091a853361027a565b6109785760405162461bcd60e51b815260206004820152602960248201527f455243313135353a2063616c6c6572206973206e6f74206f776e6572206e6f7260448201526808185c1c1c9bdd995960ba1b6064820152608401610349565b6104f08585858585611005565b60c9546001600160a01b031633146109af5760405162461bcd60e51b815260040161034990611d56565b6001600160a01b038116610a145760405162461bcd60e51b815260206004820152602660248201527f4f776e61626c653a206e6577206f776e657220697320746865207a65726f206160448201526564647265737360d01b6064820152608401610349565b610a1d81610d77565b50565b600054610100900460ff16610a3b5760005460ff1615610a3f565b303b155b610aa25760405162461bcd60e51b815260206004820152602e60248201527f496e697469616c697a61626c653a20636f6e747261637420697320616c72656160448201526d191e481a5b9a5d1a585b1a5e995960921b6064820152608401610349565b600054610100900460ff16158015610ac4576000805461ffff19166101011790555b610acd82611126565b610ad5611156565b610add61117d565b8015610569576000805461ff00191690555050565b8151835114610b135760405162461bcd60e51b815260040161034990611e20565b6001600160a01b038416610b395760405162461bcd60e51b815260040161034990611cc7565b33610b488187878787876111ac565b60005b8451811015610c31576000858281518110610b6857610b68611f93565b602002602001015190506000858381518110610b8657610b86611f93565b60209081029190910181015160008481526065835260408082206001600160a01b038e168352909352919091205490915081811015610bd75760405162461bcd60e51b815260040161034990611d0c565b60008381526065602090815260408083206001600160a01b038e8116855292528083208585039055908b16825281208054849290610c16908490611ecc565b9250508190555050505080610c2a90611f62565b9050610b4b565b50846001600160a01b0316866001600160a01b0316826001600160a01b03167f4a39dc06d4c0dbc64b70af90fd698a233a518aa5d07e595d983b8c0526c8f7fb8787604051610c81929190611c3e565b60405180910390a4610c978187878787876112b8565b505050505050565b6001600160a01b038416610cc55760405162461bcd60e51b815260040161034990611e68565b33610ce581600087610cd688611423565b610cdf88611423565b876111ac565b60008481526065602090815260408083206001600160a01b038916845290915281208054859290610d17908490611ecc565b909155505060408051858152602081018590526001600160a01b0380881692600092918516917fc3d58168c5ae7397731d063d5bbf3d657854427343f4c083240f7aacaa2d0f62910160405180910390a46104f08160008787878761146e565b60c980546001600160a01b038381166001600160a01b0319831681179093556040519116919082907f8be0079c531659141344cd1fd0a4f28419497f9722a3daafe3b4186f6b6457e090600090a35050565b6001600160a01b038416610def5760405162461bcd60e51b815260040161034990611e68565b8151835114610e105760405162461bcd60e51b815260040161034990611e20565b33610e20816000878787876111ac565b60005b8451811015610ebc57838181518110610e3e57610e3e611f93565b602002602001015160656000878481518110610e5c57610e5c611f93565b602002602001015181526020019081526020016000206000886001600160a01b03166001600160a01b031681526020019081526020016000206000828254610ea49190611ecc565b90915550819050610eb481611f62565b915050610e23565b50846001600160a01b031660006001600160a01b0316826001600160a01b03167f4a39dc06d4c0dbc64b70af90fd698a233a518aa5d07e595d983b8c0526c8f7fb8787604051610f0d929190611c3e565b60405180910390a46104f0816000878787876112b8565b816001600160a01b0316836001600160a01b03161415610f985760405162461bcd60e51b815260206004820152602960248201527f455243313135353a2073657474696e6720617070726f76616c20737461747573604482015268103337b91039b2b63360b91b6064820152608401610349565b6001600160a01b03838116600081815260666020908152604080832094871680845294825291829020805460ff191686151590811790915591519182527f17307eab39ab6107e8899845ad3d59bd9653f200f220920489ca2b5937696c31910160405180910390a3505050565b6001600160a01b03841661102b5760405162461bcd60e51b815260040161034990611cc7565b3361103b818787610cd688611423565b60008481526065602090815260408083206001600160a01b038a1684529091529020548381101561107e5760405162461bcd60e51b815260040161034990611d0c565b60008581526065602090815260408083206001600160a01b038b81168552925280832087850390559088168252812080548692906110bd908490611ecc565b909155505060408051868152602081018690526001600160a01b03808916928a821692918616917fc3d58168c5ae7397731d063d5bbf3d657854427343f4c083240f7aacaa2d0f62910160405180910390a461111d82888888888861146e565b50505050505050565b600054610100900460ff1661114d5760405162461bcd60e51b815260040161034990611dd5565b610a1d81611538565b600054610100900460ff166106ca5760405162461bcd60e51b815260040161034990611dd5565b600054610100900460ff166111a45760405162461bcd60e51b815260040161034990611dd5565b6106ca611568565b6001600160a01b0385166112335760005b8351811015611231578281815181106111d8576111d8611f93565b6020026020010151609760008684815181106111f6576111f6611f93565b60200260200101518152602001908152602001600020600082825461121b9190611ecc565b9091555061122a905081611f62565b90506111bd565b505b6001600160a01b038416610c975760005b835181101561111d5782818151811061125f5761125f611f93565b60200260200101516097600086848151811061127d5761127d611f93565b6020026020010151815260200190815260200160002060008282546112a29190611ee4565b909155506112b1905081611f62565b9050611244565b6001600160a01b0384163b15610c975760405163bc197c8160e01b81526001600160a01b0385169063bc197c81906112fc9089908990889088908890600401611b88565b602060405180830381600087803b15801561131657600080fd5b505af1925050508015611346575060408051601f3d908101601f1916820190925261134391810190611a7a565b60015b6113f357611352611fbf565b806308c379a0141561138c5750611367611fdb565b80611372575061138e565b8060405162461bcd60e51b81526004016103499190611c6c565b505b60405162461bcd60e51b815260206004820152603460248201527f455243313135353a207472616e7366657220746f206e6f6e20455243313135356044820152732932b1b2b4bb32b91034b6b83632b6b2b73a32b960611b6064820152608401610349565b6001600160e01b0319811663bc197c8160e01b1461111d5760405162461bcd60e51b815260040161034990611c7f565b6040805160018082528183019092526060916000919060208083019080368337019050509050828160008151811061145d5761145d611f93565b602090810291909101015292915050565b6001600160a01b0384163b15610c975760405163f23a6e6160e01b81526001600160a01b0385169063f23a6e61906114b29089908990889088908890600401611be6565b602060405180830381600087803b1580156114cc57600080fd5b505af19250505080156114fc575060408051601f3d908101601f191682019092526114f991810190611a7a565b60015b61150857611352611fbf565b6001600160e01b0319811663f23a6e6160e01b1461111d5760405162461bcd60e51b815260040161034990611c7f565b600054610100900460ff1661155f5760405162461bcd60e51b815260040161034990611dd5565b610a1d81611598565b600054610100900460ff1661158f5760405162461bcd60e51b815260040161034990611dd5565b6106ca33610d77565b80516105699060679060208401908280546115b290611efb565b90600052602060002090601f0160209004810192826115d4576000855561161a565b82601f106115ed57805160ff191683800117855561161a565b8280016001018555821561161a579182015b8281111561161a5782518255916020019190600101906115ff565b5061162692915061162a565b5090565b5b80821115611626576000815560010161162b565b60006001600160401b0383111561165857611658611fa9565b60405161166f601f8501601f191660200182611f36565b80915083815284848401111561168457600080fd5b83836020830137600060208583010152509392505050565b80356001600160a01b03811681146116b357600080fd5b919050565b600082601f8301126116c957600080fd5b813560206116d682611ea9565b6040516116e38282611f36565b8381528281019150858301600585901b8701840188101561170357600080fd5b60005b8581101561172257813584529284019290840190600101611706565b5090979650505050505050565b600082601f83011261174057600080fd5b61174f8383356020850161163f565b9392505050565b60006020828403121561176857600080fd5b61174f8261169c565b6000806040838503121561178457600080fd5b61178d8361169c565b915061179b6020840161169c565b90509250929050565b600080600080600060a086880312156117bc57600080fd5b6117c58661169c565b94506117d36020870161169c565b935060408601356001600160401b03808211156117ef57600080fd5b6117fb89838a016116b8565b9450606088013591508082111561181157600080fd5b61181d89838a016116b8565b9350608088013591508082111561183357600080fd5b506118408882890161172f565b9150509295509295909350565b600080600080600060a0868803121561186557600080fd5b61186e8661169c565b945061187c6020870161169c565b9350604086013592506060860135915060808601356001600160401b038111156118a557600080fd5b6118408882890161172f565b600080604083850312156118c457600080fd5b6118cd8361169c565b915060208301356001600160401b038111156118e857600080fd5b6118f4858286016116b8565b9150509250929050565b6000806040838503121561191157600080fd5b61191a8361169c565b91506020830135801515811461192f57600080fd5b809150509250929050565b6000806040838503121561194d57600080fd5b6119568361169c565b946020939093013593505050565b60008060006060848603121561197957600080fd5b6119828461169c565b95602085013595506040909401359392505050565b600080604083850312156119aa57600080fd5b82356001600160401b03808211156119c157600080fd5b818501915085601f8301126119d557600080fd5b813560206119e282611ea9565b6040516119ef8282611f36565b8381528281019150858301600585901b870184018b1015611a0f57600080fd5b600096505b84871015611a3957611a258161169c565b835260019690960195918301918301611a14565b5096505086013592505080821115611a5057600080fd5b506118f4858286016116b8565b600060208284031215611a6f57600080fd5b813561174f81612064565b600060208284031215611a8c57600080fd5b815161174f81612064565b600060208284031215611aa957600080fd5b81356001600160401b03811115611abf57600080fd5b8201601f81018413611ad057600080fd5b611adf8482356020840161163f565b949350505050565b600060208284031215611af957600080fd5b5035919050565b600081518084526020808501945080840160005b83811015611b3057815187529582019590820190600101611b14565b509495945050505050565b6000815180845260005b81811015611b6157602081850181015186830182015201611b45565b81811115611b73576000602083870101525b50601f01601f19169290920160200192915050565b6001600160a01b0386811682528516602082015260a060408201819052600090611bb490830186611b00565b8281036060840152611bc68186611b00565b90508281036080840152611bda8185611b3b565b98975050505050505050565b6001600160a01b03868116825285166020820152604081018490526060810183905260a060808201819052600090611c2090830184611b3b565b979650505050505050565b60208152600061174f6020830184611b00565b604081526000611c516040830185611b00565b8281036020840152611c638185611b00565b95945050505050565b60208152600061174f6020830184611b3b565b60208082526028908201527f455243313135353a204552433131353552656365697665722072656a656374656040820152676420746f6b656e7360c01b606082015260800190565b60208082526025908201527f455243313135353a207472616e7366657220746f20746865207a65726f206164604082015264647265737360d81b606082015260800190565b6020808252602a908201527f455243313135353a20696e73756666696369656e742062616c616e636520666f60408201526939103a3930b739b332b960b11b606082015260800190565b6020808252818101527f4f776e61626c653a2063616c6c6572206973206e6f7420746865206f776e6572604082015260600190565b6020808252602a908201527f426f6c65746f4e46543a205468697320746f6b656e20696420697320616c726560408201526918591e481b5a5b9d195960b21b606082015260800190565b6020808252602b908201527f496e697469616c697a61626c653a20636f6e7472616374206973206e6f74206960408201526a6e697469616c697a696e6760a81b606082015260800190565b60208082526028908201527f455243313135353a2069647320616e6420616d6f756e7473206c656e677468206040820152670dad2e6dac2e8c6d60c31b606082015260800190565b60208082526021908201527f455243313135353a206d696e7420746f20746865207a65726f206164647265736040820152607360f81b606082015260800190565b60006001600160401b03821115611ec257611ec2611fa9565b5060051b60200190565b60008219821115611edf57611edf611f7d565b500190565b600082821015611ef657611ef6611f7d565b500390565b600181811c90821680611f0f57607f821691505b60208210811415611f3057634e487b7160e01b600052602260045260246000fd5b50919050565b601f8201601f191681016001600160401b0381118282101715611f5b57611f5b611fa9565b6040525050565b6000600019821415611f7657611f76611f7d565b5060010190565b634e487b7160e01b600052601160045260246000fd5b634e487b7160e01b600052603260045260246000fd5b634e487b7160e01b600052604160045260246000fd5b600060033d1115611fd85760046000803e5060005160e01c5b90565b600060443d1015611fe95790565b6040516003193d81016004833e81513d6001600160401b03816024840111818411171561201857505050505090565b82850191508151818111156120305750505050505090565b843d870101602082850101111561204a5750505050505090565b61205960208286010187611f36565b509095945050505050565b6001600160e01b031981168114610a1d57600080fdfea2646970667358221220624149d0c1b926806e1aee10ac30aa8d96d87943219f6c72019379163ee122a664736f6c63430008070033",
    "linkReferences": {},
    "deployedLinkReferences": {}
}