{
    "_format": "hh-sol-artifact-1",
    "contractName": "Market",
    "sourceName": "contracts/Market.sol",
    "abi": [
        {
            "anonymous": false,
            "inputs": [
                {
                    "indexed": true,
                    "internalType": "address",
                    "name": "owner",
                    "type": "address"
                },
                {
                    "indexed": true,
                    "internalType": "address",
                    "name": "spender",
                    "type": "address"
                },
                {
                    "indexed": false,
                    "internalType": "uint256",
                    "name": "value",
                    "type": "uint256"
                }
            ],
            "name": "Approval",
            "type": "event"
        },
        {
            "anonymous": false,
            "inputs": [
                {
                    "indexed": false,
                    "internalType": "uint256[]",
                    "name": "id",
                    "type": "uint256[]"
                },
                {
                    "indexed": true,
                    "internalType": "uint256[]",
                    "name": "assetId",
                    "type": "uint256[]"
                },
                {
                    "indexed": true,
                    "internalType": "address",
                    "name": "seller",
                    "type": "address"
                },
                {
                    "indexed": false,
                    "internalType": "address",
                    "name": "nftAddress",
                    "type": "address"
                },
                {
                    "indexed": false,
                    "internalType": "uint256[]",
                    "name": "priceInWei",
                    "type": "uint256[]"
                },
                {
                    "indexed": false,
                    "internalType": "uint256[]",
                    "name": "expiresAt",
                    "type": "uint256[]"
                }
            ],
            "name": "OrderBatchCreated",
            "type": "event"
        },
        {
            "anonymous": false,
            "inputs": [
                {
                    "indexed": false,
                    "internalType": "uint256",
                    "name": "id",
                    "type": "uint256"
                },
                {
                    "indexed": true,
                    "internalType": "uint256",
                    "name": "assetId",
                    "type": "uint256"
                },
                {
                    "indexed": true,
                    "internalType": "address",
                    "name": "seller",
                    "type": "address"
                },
                {
                    "indexed": false,
                    "internalType": "address",
                    "name": "nftAddress",
                    "type": "address"
                }
            ],
            "name": "OrderCancelled",
            "type": "event"
        },
        {
            "anonymous": false,
            "inputs": [
                {
                    "indexed": false,
                    "internalType": "uint256",
                    "name": "id",
                    "type": "uint256"
                },
                {
                    "indexed": true,
                    "internalType": "uint256",
                    "name": "assetId",
                    "type": "uint256"
                },
                {
                    "indexed": true,
                    "internalType": "address",
                    "name": "seller",
                    "type": "address"
                },
                {
                    "indexed": false,
                    "internalType": "address",
                    "name": "nftAddress",
                    "type": "address"
                },
                {
                    "indexed": false,
                    "internalType": "uint256",
                    "name": "priceInWei",
                    "type": "uint256"
                },
                {
                    "indexed": false,
                    "internalType": "uint256",
                    "name": "expiresAt",
                    "type": "uint256"
                }
            ],
            "name": "OrderCreated",
            "type": "event"
        },
        {
            "anonymous": false,
            "inputs": [
                {
                    "indexed": false,
                    "internalType": "uint256",
                    "name": "id",
                    "type": "uint256"
                },
                {
                    "indexed": true,
                    "internalType": "uint256",
                    "name": "assetId",
                    "type": "uint256"
                },
                {
                    "indexed": true,
                    "internalType": "address",
                    "name": "seller",
                    "type": "address"
                },
                {
                    "indexed": false,
                    "internalType": "address",
                    "name": "nftAddress",
                    "type": "address"
                },
                {
                    "indexed": false,
                    "internalType": "uint256",
                    "name": "totalPrice",
                    "type": "uint256"
                },
                {
                    "indexed": true,
                    "internalType": "address",
                    "name": "buyer",
                    "type": "address"
                }
            ],
            "name": "OrderSuccessful",
            "type": "event"
        },
        {
            "anonymous": false,
            "inputs": [
                {
                    "indexed": true,
                    "internalType": "address",
                    "name": "previousOwner",
                    "type": "address"
                },
                {
                    "indexed": true,
                    "internalType": "address",
                    "name": "newOwner",
                    "type": "address"
                }
            ],
            "name": "OwnershipTransferred",
            "type": "event"
        },
        {
            "anonymous": false,
            "inputs": [
                {
                    "indexed": false,
                    "internalType": "address",
                    "name": "account",
                    "type": "address"
                }
            ],
            "name": "Paused",
            "type": "event"
        },
        {
            "anonymous": false,
            "inputs": [
                {
                    "indexed": true,
                    "internalType": "address",
                    "name": "from",
                    "type": "address"
                },
                {
                    "indexed": true,
                    "internalType": "address",
                    "name": "to",
                    "type": "address"
                },
                {
                    "indexed": false,
                    "internalType": "uint256",
                    "name": "value",
                    "type": "uint256"
                }
            ],
            "name": "Transfer",
            "type": "event"
        },
        {
            "anonymous": false,
            "inputs": [
                {
                    "indexed": false,
                    "internalType": "address",
                    "name": "account",
                    "type": "address"
                }
            ],
            "name": "Unpaused",
            "type": "event"
        },
        {
            "inputs": [
                {
                    "internalType": "address",
                    "name": "owner",
                    "type": "address"
                },
                {
                    "internalType": "address",
                    "name": "spender",
                    "type": "address"
                }
            ],
            "name": "allowance",
            "outputs": [
                {
                    "internalType": "uint256",
                    "name": "",
                    "type": "uint256"
                }
            ],
            "stateMutability": "view",
            "type": "function"
        },
        {
            "inputs": [
                {
                    "internalType": "address",
                    "name": "spender",
                    "type": "address"
                },
                {
                    "internalType": "uint256",
                    "name": "amount",
                    "type": "uint256"
                }
            ],
            "name": "approve",
            "outputs": [
                {
                    "internalType": "bool",
                    "name": "",
                    "type": "bool"
                }
            ],
            "stateMutability": "nonpayable",
            "type": "function"
        },
        {
            "inputs": [
                {
                    "internalType": "address",
                    "name": "account",
                    "type": "address"
                }
            ],
            "name": "balanceOf",
            "outputs": [
                {
                    "internalType": "uint256",
                    "name": "",
                    "type": "uint256"
                }
            ],
            "stateMutability": "view",
            "type": "function"
        },
        {
            "inputs": [
                {
                    "internalType": "address",
                    "name": "nftAddress",
                    "type": "address"
                },
                {
                    "internalType": "uint256",
                    "name": "orderId",
                    "type": "uint256"
                }
            ],
            "name": "cancelOrder",
            "outputs": [],
            "stateMutability": "nonpayable",
            "type": "function"
        },
        {
            "inputs": [
                {
                    "internalType": "address",
                    "name": "nftAddress",
                    "type": "address"
                },
                {
                    "internalType": "uint256[]",
                    "name": "assetId",
                    "type": "uint256[]"
                },
                {
                    "internalType": "uint256[]",
                    "name": "priceInWei",
                    "type": "uint256[]"
                },
                {
                    "internalType": "uint256[]",
                    "name": "expiresAt",
                    "type": "uint256[]"
                },
                {
                    "internalType": "bool",
                    "name": "exPay",
                    "type": "bool"
                }
            ],
            "name": "createBatchOrder",
            "outputs": [],
            "stateMutability": "nonpayable",
            "type": "function"
        },
        {
            "inputs": [
                {
                    "internalType": "address",
                    "name": "nftAddress",
                    "type": "address"
                },
                {
                    "internalType": "uint256",
                    "name": "id",
                    "type": "uint256"
                },
                {
                    "internalType": "uint256",
                    "name": "priceInWei",
                    "type": "uint256"
                },
                {
                    "internalType": "uint256",
                    "name": "expiresAt",
                    "type": "uint256"
                },
                {
                    "internalType": "bool",
                    "name": "exPay",
                    "type": "bool"
                }
            ],
            "name": "createOrder",
            "outputs": [],
            "stateMutability": "nonpayable",
            "type": "function"
        },
        {
            "inputs": [],
            "name": "decimals",
            "outputs": [
                {
                    "internalType": "uint8",
                    "name": "",
                    "type": "uint8"
                }
            ],
            "stateMutability": "view",
            "type": "function"
        },
        {
            "inputs": [
                {
                    "internalType": "address",
                    "name": "spender",
                    "type": "address"
                },
                {
                    "internalType": "uint256",
                    "name": "subtractedValue",
                    "type": "uint256"
                }
            ],
            "name": "decreaseAllowance",
            "outputs": [
                {
                    "internalType": "bool",
                    "name": "",
                    "type": "bool"
                }
            ],
            "stateMutability": "nonpayable",
            "type": "function"
        },
        {
            "inputs": [],
            "name": "idexCount",
            "outputs": [
                {
                    "internalType": "uint256",
                    "name": "",
                    "type": "uint256"
                }
            ],
            "stateMutability": "view",
            "type": "function"
        },
        {
            "inputs": [
                {
                    "internalType": "address",
                    "name": "spender",
                    "type": "address"
                },
                {
                    "internalType": "uint256",
                    "name": "addedValue",
                    "type": "uint256"
                }
            ],
            "name": "increaseAllowance",
            "outputs": [
                {
                    "internalType": "bool",
                    "name": "",
                    "type": "bool"
                }
            ],
            "stateMutability": "nonpayable",
            "type": "function"
        },
        {
            "inputs": [
                {
                    "internalType": "address",
                    "name": "_tokenAd",
                    "type": "address"
                },
                {
                    "internalType": "string",
                    "name": "secKey",
                    "type": "string"
                }
            ],
            "name": "initialize",
            "outputs": [],
            "stateMutability": "nonpayable",
            "type": "function"
        },
        {
            "inputs": [],
            "name": "name",
            "outputs": [
                {
                    "internalType": "string",
                    "name": "",
                    "type": "string"
                }
            ],
            "stateMutability": "view",
            "type": "function"
        },
        {
            "inputs": [
                {
                    "internalType": "address",
                    "name": "",
                    "type": "address"
                },
                {
                    "internalType": "address",
                    "name": "",
                    "type": "address"
                },
                {
                    "internalType": "uint256[]",
                    "name": "",
                    "type": "uint256[]"
                },
                {
                    "internalType": "uint256[]",
                    "name": "",
                    "type": "uint256[]"
                },
                {
                    "internalType": "bytes",
                    "name": "",
                    "type": "bytes"
                }
            ],
            "name": "onERC1155BatchReceived",
            "outputs": [
                {
                    "internalType": "bytes4",
                    "name": "",
                    "type": "bytes4"
                }
            ],
            "stateMutability": "nonpayable",
            "type": "function"
        },
        {
            "inputs": [
                {
                    "internalType": "address",
                    "name": "",
                    "type": "address"
                },
                {
                    "internalType": "address",
                    "name": "",
                    "type": "address"
                },
                {
                    "internalType": "uint256",
                    "name": "",
                    "type": "uint256"
                },
                {
                    "internalType": "uint256",
                    "name": "",
                    "type": "uint256"
                },
                {
                    "internalType": "bytes",
                    "name": "",
                    "type": "bytes"
                }
            ],
            "name": "onERC1155Received",
            "outputs": [
                {
                    "internalType": "bytes4",
                    "name": "",
                    "type": "bytes4"
                }
            ],
            "stateMutability": "nonpayable",
            "type": "function"
        },
        {
            "inputs": [
                {
                    "internalType": "uint256",
                    "name": "",
                    "type": "uint256"
                }
            ],
            "name": "orderByIndex",
            "outputs": [
                {
                    "internalType": "uint256",
                    "name": "orderID",
                    "type": "uint256"
                },
                {
                    "internalType": "address",
                    "name": "nftAddress",
                    "type": "address"
                }
            ],
            "stateMutability": "view",
            "type": "function"
        },
        {
            "inputs": [
                {
                    "internalType": "address",
                    "name": "",
                    "type": "address"
                },
                {
                    "internalType": "uint256",
                    "name": "",
                    "type": "uint256"
                }
            ],
            "name": "orderByOrderId",
            "outputs": [
                {
                    "internalType": "uint256",
                    "name": "id",
                    "type": "uint256"
                },
                {
                    "internalType": "address",
                    "name": "seller",
                    "type": "address"
                },
                {
                    "internalType": "address",
                    "name": "nftAddress",
                    "type": "address"
                },
                {
                    "internalType": "uint256",
                    "name": "price",
                    "type": "uint256"
                },
                {
                    "internalType": "uint256",
                    "name": "expiresAt",
                    "type": "uint256"
                },
                {
                    "internalType": "bool",
                    "name": "exPayment",
                    "type": "bool"
                }
            ],
            "stateMutability": "view",
            "type": "function"
        },
        {
            "inputs": [
                {
                    "internalType": "address",
                    "name": "",
                    "type": "address"
                }
            ],
            "name": "orderCount",
            "outputs": [
                {
                    "internalType": "uint256",
                    "name": "",
                    "type": "uint256"
                }
            ],
            "stateMutability": "view",
            "type": "function"
        },
        {
            "inputs": [
                {
                    "internalType": "uint256",
                    "name": "last",
                    "type": "uint256"
                }
            ],
            "name": "orderList",
            "outputs": [
                {
                    "components": [
                        {
                            "internalType": "uint256",
                            "name": "id",
                            "type": "uint256"
                        },
                        {
                            "internalType": "address",
                            "name": "seller",
                            "type": "address"
                        },
                        {
                            "internalType": "address",
                            "name": "nftAddress",
                            "type": "address"
                        },
                        {
                            "internalType": "uint256",
                            "name": "price",
                            "type": "uint256"
                        },
                        {
                            "internalType": "uint256",
                            "name": "expiresAt",
                            "type": "uint256"
                        },
                        {
                            "internalType": "bool",
                            "name": "exPayment",
                            "type": "bool"
                        }
                    ],
                    "internalType": "struct Market.Order[]",
                    "name": "",
                    "type": "tuple[]"
                },
                {
                    "internalType": "uint256[]",
                    "name": "",
                    "type": "uint256[]"
                }
            ],
            "stateMutability": "view",
            "type": "function"
        },
        {
            "inputs": [
                {
                    "internalType": "address",
                    "name": "nftAddress",
                    "type": "address"
                },
                {
                    "internalType": "uint256",
                    "name": "from",
                    "type": "uint256"
                },
                {
                    "internalType": "uint256",
                    "name": "to",
                    "type": "uint256"
                }
            ],
            "name": "orderListByAddress",
            "outputs": [
                {
                    "components": [
                        {
                            "internalType": "uint256",
                            "name": "id",
                            "type": "uint256"
                        },
                        {
                            "internalType": "address",
                            "name": "seller",
                            "type": "address"
                        },
                        {
                            "internalType": "address",
                            "name": "nftAddress",
                            "type": "address"
                        },
                        {
                            "internalType": "uint256",
                            "name": "price",
                            "type": "uint256"
                        },
                        {
                            "internalType": "uint256",
                            "name": "expiresAt",
                            "type": "uint256"
                        },
                        {
                            "internalType": "bool",
                            "name": "exPayment",
                            "type": "bool"
                        }
                    ],
                    "internalType": "struct Market.Order[]",
                    "name": "",
                    "type": "tuple[]"
                },
                {
                    "internalType": "uint256[]",
                    "name": "",
                    "type": "uint256[]"
                }
            ],
            "stateMutability": "view",
            "type": "function"
        },
        {
            "inputs": [],
            "name": "owner",
            "outputs": [
                {
                    "internalType": "address",
                    "name": "",
                    "type": "address"
                }
            ],
            "stateMutability": "view",
            "type": "function"
        },
        {
            "inputs": [],
            "name": "paused",
            "outputs": [
                {
                    "internalType": "bool",
                    "name": "",
                    "type": "bool"
                }
            ],
            "stateMutability": "view",
            "type": "function"
        },
        {
            "inputs": [],
            "name": "payToken",
            "outputs": [
                {
                    "internalType": "contract IERC20Upgradeable",
                    "name": "",
                    "type": "address"
                }
            ],
            "stateMutability": "view",
            "type": "function"
        },
        {
            "inputs": [],
            "name": "renounceOwnership",
            "outputs": [],
            "stateMutability": "nonpayable",
            "type": "function"
        },
        {
            "inputs": [
                {
                    "internalType": "address",
                    "name": "nftAddress",
                    "type": "address"
                },
                {
                    "internalType": "address",
                    "name": "newOwner",
                    "type": "address"
                },
                {
                    "internalType": "uint256",
                    "name": "assetId",
                    "type": "uint256"
                },
                {
                    "internalType": "string",
                    "name": "secKey",
                    "type": "string"
                }
            ],
            "name": "safeExecuteOrder",
            "outputs": [],
            "stateMutability": "nonpayable",
            "type": "function"
        },
        {
            "inputs": [
                {
                    "internalType": "bytes4",
                    "name": "interfaceId",
                    "type": "bytes4"
                }
            ],
            "name": "supportsInterface",
            "outputs": [
                {
                    "internalType": "bool",
                    "name": "",
                    "type": "bool"
                }
            ],
            "stateMutability": "view",
            "type": "function"
        },
        {
            "inputs": [],
            "name": "symbol",
            "outputs": [
                {
                    "internalType": "string",
                    "name": "",
                    "type": "string"
                }
            ],
            "stateMutability": "view",
            "type": "function"
        },
        {
            "inputs": [],
            "name": "totalSupply",
            "outputs": [
                {
                    "internalType": "uint256",
                    "name": "",
                    "type": "uint256"
                }
            ],
            "stateMutability": "view",
            "type": "function"
        },
        {
            "inputs": [
                {
                    "internalType": "address",
                    "name": "to",
                    "type": "address"
                },
                {
                    "internalType": "uint256",
                    "name": "amount",
                    "type": "uint256"
                }
            ],
            "name": "transfer",
            "outputs": [
                {
                    "internalType": "bool",
                    "name": "",
                    "type": "bool"
                }
            ],
            "stateMutability": "nonpayable",
            "type": "function"
        },
        {
            "inputs": [
                {
                    "internalType": "address",
                    "name": "from",
                    "type": "address"
                },
                {
                    "internalType": "address",
                    "name": "to",
                    "type": "address"
                },
                {
                    "internalType": "uint256",
                    "name": "amount",
                    "type": "uint256"
                }
            ],
            "name": "transferFrom",
            "outputs": [
                {
                    "internalType": "bool",
                    "name": "",
                    "type": "bool"
                }
            ],
            "stateMutability": "nonpayable",
            "type": "function"
        },
        {
            "inputs": [
                {
                    "internalType": "address",
                    "name": "newOwner",
                    "type": "address"
                }
            ],
            "name": "transferOwnership",
            "outputs": [],
            "stateMutability": "nonpayable",
            "type": "function"
        }
    ],
    "bytecode": "0x608060405234801561001057600080fd5b506130ad806100206000396000f3fe608060405234801561001057600080fd5b50600436106101da5760003560e01c8063713d856b11610104578063a457c2d7116100a2578063dd62ed3e11610071578063dd62ed3e146104e7578063f23a6e6114610520578063f2fde38b1461053f578063f399e22e1461055257600080fd5b8063a457c2d714610476578063a9059cbb14610489578063bc197c811461049c578063d2edb146146104d457600080fd5b80638da5cb5b116100de5780638da5cb5b14610421578063931ab4541461044757806395d89b411461045a57806396336b301461046257600080fd5b8063713d856b146103e5578063715018a61461040657806376f75e7f1461040e57600080fd5b806331936a9a1161017c5780636a2061371161014b5780636a2061371461037e5780636ba5fcfa146103915780636edc69b9146103b257806370a08231146103bc57600080fd5b806331936a9a146102fd578063395093511461034b578063494efa361461035e5780635c975abb1461037357600080fd5b8063095ea7b3116101b8578063095ea7b3146102b657806318160ddd146102c957806323b872dd146102db578063313ce567146102ee57600080fd5b806301d45b49146101df57806301ffc9a71461027e57806306fdde03146102a1575b600080fd5b61023e6101ed366004612bd9565b61016160209081526000928352604080842090915290825290208054600182015460028301546003840154600485015460059095015493946001600160a01b03938416949290931692909160ff1686565b604080519687526001600160a01b039586166020880152939094169285019290925260608401526080830152151560a082015260c0015b60405180910390f35b61029161028c366004612c99565b610565565b6040519015158152602001610275565b6102a961059c565b6040516102759190612e72565b6102916102c4366004612bd9565b61062e565b6035545b604051908152602001610275565b6102916102e93660046129cc565b610646565b60405160128152602001610275565b61032e61030b366004612cc3565b61016260205260009081526040902080546001909101546001600160a01b031682565b604080519283526001600160a01b03909116602083015201610275565b610291610359366004612bd9565b61066a565b61037161036c366004612a08565b6106a9565b005b60fb5460ff16610291565b61037161038c366004612bd9565b6106ea565b6103a461039f366004612c03565b61071c565b604051610275929190612d92565b6102cd6101645481565b6102cd6103ca3660046128ce565b6001600160a01b031660009081526033602052604090205490565b6102cd6103f33660046128ce565b6101636020526000908152604090205481565b610371610b0f565b6103a461041c366004612cc3565b610b76565b61012d546001600160a01b03165b6040516001600160a01b039091168152602001610275565b610371610455366004612ada565b610f82565b6102a9610fb9565b61015f5461042f906001600160a01b031681565b610291610484366004612bd9565b610fc8565b610291610497366004612bd9565b61105a565b6104bb6104aa366004612923565b63bc197c8160e01b95945050505050565b6040516001600160e01b03199091168152602001610275565b6103716104e2366004612c36565b611068565b6102cd6104f53660046128f0565b6001600160a01b03918216600090815260346020908152604080832093909416825291909152205490565b6104bb61052e366004612a76565b63f23a6e6160e01b95945050505050565b61037161054d3660046128ce565b611098565b610371610560366004612b87565b611164565b60006001600160e01b03198216630271189760e51b148061059657506301ffc9a760e01b6001600160e01b03198316145b92915050565b6060603680546105ab90612fd1565b80601f01602080910402602001604051908101604052809291908181526020018280546105d790612fd1565b80156106245780601f106105f957610100808354040283529160200191610624565b820191906000526020600020905b81548152906001019060200180831161060757829003601f168201915b5050505050905090565b60003361063c818585611281565b5060019392505050565b6000336106548582856113a5565b61065f858585611431565b506001949350505050565b3360008181526034602090815260408083206001600160a01b038716845290915281205490919061063c90829086906106a4908790612f6c565b611281565b60fb5460ff16156106d55760405162461bcd60e51b81526004016106cc90612ec7565b60405180910390fd5b6106e285858585856115ff565b505050505050565b60fb5460ff161561070d5760405162461bcd60e51b81526004016106cc90612ec7565b6107178282611a13565b505050565b6060808383116107645760405162461bcd60e51b81526020600482015260136024820152722a379039b437bab632103132903434b3b432b960691b60448201526064016106cc565b60006107708585612fa3565b90506000816001600160401b0381111561078c5761078c613053565b6040519080825280602002602001820160405280156107c557816020015b6107b261272c565b8152602001906001900390816107aa5790505b5090506000826001600160401b038111156107e2576107e2613053565b60405190808252806020026020018201604052801561080b578160200160208202803683370190505b5090506000875b8781116109af576001600160a01b03808b16600090815261016160209081526040808320858452825291829020825160c0810184528154815260018201548516928101929092526002810154909316918101919091526003820154606082015260048201546080820181905260059092015460ff16151560a0820152901561099c57428160800151111561099c57604081810151602083015183519251627eeac760e11b81526001600160a01b0391821660048201526024810193909352909160009183169062fdd58e9060440160206040518083038186803b1580156108f857600080fd5b505afa15801561090c573d6000803e3d6000fd5b505050506040513d601f19601f820116820180604052508101906109309190612cdc565b90508015610999578287868151811061094b5761094b61303d565b60200260200101819052506101626000858152602001908152602001600020600001548686815181106109805761098061303d565b6020908102919091010152846109958161300c565b9550505b50505b50806109a78161300c565b915050610812565b50838114156109c557509093509150610b079050565b8015610b02576000816001600160401b038111156109e5576109e5613053565b604051908082528060200260200182016040528015610a1e57816020015b610a0b61272c565b815260200190600190039081610a035790505b5090506000826001600160401b03811115610a3b57610a3b613053565b604051908082528060200260200182016040528015610a64578160200160208202803683370190505b50905060005b83811015610af257858181518110610a8457610a8461303d565b6020026020010151838281518110610a9e57610a9e61303d565b6020026020010181905250848181518110610abb57610abb61303d565b6020026020010151828281518110610ad557610ad561303d565b602090810291909101015280610aea8161300c565b915050610a6a565b509096509450610b079350505050565b505050505b935093915050565b61012d546001600160a01b03163314610b6a5760405162461bcd60e51b815260206004820181905260248201527f4f776e61626c653a2063616c6c6572206973206e6f7420746865206f776e657260448201526064016106cc565b610b746000611c0c565b565b60608060008311610bc95760405162461bcd60e51b815260206004820152601760248201527f20696e7075742073686f756c642062652068696768657200000000000000000060448201526064016106cc565b6000836001600160401b03811115610be357610be3613053565b604051908082528060200260200182016040528015610c1c57816020015b610c0961272c565b815260200190600190039081610c015790505b5090506000846001600160401b03811115610c3957610c39613053565b604051908082528060200260200182016040528015610c62578160200160208202803683370190505b50610164549091506000905b8015610e2b576000818152610162602090815260408083206001808201546001600160a01b03908116865261016185528386209254865291845293829020825160c0810184528154815294810154821693850193909352600283015416908301526003810154606083015260048101546080830181905260059091015460ff16151560a083015215610e18574281608001511115610e1857604081810151602083015183519251627eeac760e11b81526001600160a01b0391821660048201526024810193909352909160009183169062fdd58e9060440160206040518083038186803b158015610d5e57600080fd5b505afa158015610d72573d6000803e3d6000fd5b505050506040513d601f19601f82011682018060405250810190610d969190612cdc565b90508015610dff5782878681518110610db157610db161303d565b6020026020010181905250610162600085815260200190815260200160002060000154868681518110610de657610de661303d565b602090810291909101015284610dfb8161300c565b9550505b89610e0b866001612f6c565b10610e1557600093505b50505b5080610e2381612fba565b915050610c6e565b5085811415610e3f57509094909350915050565b8015610f7a576000816001600160401b03811115610e5f57610e5f613053565b604051908082528060200260200182016040528015610e9857816020015b610e8561272c565b815260200190600190039081610e7d5790505b5090506000826001600160401b03811115610eb557610eb5613053565b604051908082528060200260200182016040528015610ede578160200160208202803683370190505b50905060005b83811015610f6c57858181518110610efe57610efe61303d565b6020026020010151838281518110610f1857610f1861303d565b6020026020010181905250848181518110610f3557610f3561303d565b6020026020010151828281518110610f4f57610f4f61303d565b602090810291909101015280610f648161300c565b915050610ee4565b509097909650945050505050565b505050915091565b60fb5460ff1615610fa55760405162461bcd60e51b81526004016106cc90612ec7565b610fb28585858585611c5f565b5050505050565b6060603780546105ab90612fd1565b3360008181526034602090815260408083206001600160a01b03871684529091528120549091908381101561104d5760405162461bcd60e51b815260206004820152602560248201527f45524332303a2064656372656173656420616c6c6f77616e63652062656c6f77604482015264207a65726f60d81b60648201526084016106cc565b61065f8286868403611281565b60003361063c818585611431565b60fb5460ff161561108b5760405162461bcd60e51b81526004016106cc90612ec7565b610fb285858585856122a7565b61012d546001600160a01b031633146110f35760405162461bcd60e51b815260206004820181905260248201527f4f776e61626c653a2063616c6c6572206973206e6f7420746865206f776e657260448201526064016106cc565b6001600160a01b0381166111585760405162461bcd60e51b815260206004820152602660248201527f4f776e61626c653a206e6577206f776e657220697320746865207a65726f206160448201526564647265737360d01b60648201526084016106cc565b61116181611c0c565b50565b600054610100900460ff1661117f5760005460ff1615611183565b303b155b6111e65760405162461bcd60e51b815260206004820152602e60248201527f496e697469616c697a61626c653a20636f6e747261637420697320616c72656160448201526d191e481a5b9a5d1a585b1a5e995960921b60648201526084016106cc565b600054610100900460ff16158015611208576000805461ffff19166101011790555b61015f80546001600160a01b0319166001600160a01b03861617905561122c6126d2565b61012d546001600160a01b0316838360405160200161124d93929190612d30565b60408051601f19818403018152919052805160209091012061016055801561127b576000805461ff00191690555b50505050565b6001600160a01b0383166112e35760405162461bcd60e51b8152602060048201526024808201527f45524332303a20617070726f76652066726f6d20746865207a65726f206164646044820152637265737360e01b60648201526084016106cc565b6001600160a01b0382166113445760405162461bcd60e51b815260206004820152602260248201527f45524332303a20617070726f766520746f20746865207a65726f206164647265604482015261737360f01b60648201526084016106cc565b6001600160a01b0383811660008181526034602090815260408083209487168084529482529182902085905590518481527f8c5be1e5ebec7d5bd14f71427d1e84f3dd0314c0f7b2291e5b200ac8c7c3b925910160405180910390a3505050565b6001600160a01b03838116600090815260346020908152604080832093861683529290522054600019811461127b57818110156114245760405162461bcd60e51b815260206004820152601d60248201527f45524332303a20696e73756666696369656e7420616c6c6f77616e636500000060448201526064016106cc565b61127b8484848403611281565b6001600160a01b0383166114955760405162461bcd60e51b815260206004820152602560248201527f45524332303a207472616e736665722066726f6d20746865207a65726f206164604482015264647265737360d81b60648201526084016106cc565b6001600160a01b0382166114f75760405162461bcd60e51b815260206004820152602360248201527f45524332303a207472616e7366657220746f20746865207a65726f206164647260448201526265737360e81b60648201526084016106cc565b6001600160a01b0383166000908152603360205260409020548181101561156f5760405162461bcd60e51b815260206004820152602660248201527f45524332303a207472616e7366657220616d6f756e7420657863656564732062604482015265616c616e636560d01b60648201526084016106cc565b6001600160a01b038085166000908152603360205260408082208585039055918516815290812080548492906115a6908490612f6c565b92505081905550826001600160a01b0316846001600160a01b03167fddf252ad1be2c89b69c2b068fc378daa952ba7f163c4a11628f55a4df523b3ef846040516115f291815260200190565b60405180910390a361127b565b61160761272c565b61012d5433906000906001600160a01b0316858560405160200161162d93929190612d30565b60408051601f1981840301815282825280516020918201206001600160a01b03808d16600090815261016184528481208c8252845284902060c0860185528054865260018101548216938601939093526002830154169284019290925260038101546060840152600481015460808401526005015460ff16151560a08301526101605490925089919083146117045760405162461bcd60e51b815260206004820152601a60248201527f596f7520646f6e742068617665206175746f72697a6174696f6e00000000000060448201526064016106cc565b80516117415760405162461bcd60e51b815260206004820152600c60248201526b4e4f5420464f522053414c4560a01b60448201526064016106cc565b886001600160a01b031681602001516001600160a01b0316141561179e5760405162461bcd60e51b81526020600482015260146024820152731029a2a72222a91022a8902722ab9027aba722a960611b60448201526064016106cc565b806080015142106117db5760405162461bcd60e51b81526020600482015260076024820152661156141254915160ca1b60448201526064016106cc565b6020810151604051627eeac760e11b81526001600160a01b039182166004820152602481018a905260009184169062fdd58e9060440160206040518083038186803b15801561182957600080fd5b505afa15801561183d573d6000803e3d6000fd5b505050506040513d601f19601f820116820180604052508101906118619190612cdc565b1161189e5760405162461bcd60e51b815260206004820152600d60248201526c4e4f5420415641494c41424c4560981b60448201526064016106cc565b6001600160a01b03808b166000908152610161602090815260408083208c84528252808320838155600180820180546001600160a01b0319908116909155600283018054909116905560038083018690556004808401969096556005909201805460ff191690559286015186519251637921219560e11b8152908616948101949094528d851660248501526044840191909152606483019190915260a0608483015260a48201526203078360ec1b60c48201529083169063f242432a9060e401600060405180830381600087803b15801561197857600080fd5b505af115801561198c573d6000803e3d6000fd5b50505050836001600160a01b031681602001516001600160a01b0316897f379cbdfef41a46f312a20ff1b22852d767c763cadb2ef0a5a42ca572a66a50de84600001518e86606001516040516119fe939291909283526001600160a01b03919091166020830152604082015260600190565b60405180910390a49998505050505050505050565b611a1b61272c565b6001600160a01b03838116600090815261016160209081526040808320868452825291829020825160c08101845281548082526001830154861693820193909352600282015490941692840192909252600382015460608401526004820154608084015260059091015460ff16151560a0830152339190611ad45760405162461bcd60e51b8152602060048201526013602482015272105cdcd95d081b9bdd081c1d589b1a5cda1959606a1b60448201526064016106cc565b816001600160a01b031681602001516001600160a01b03161480611b06575061012d546001600160a01b038381169116145b611b525760405162461bcd60e51b815260206004820152601960248201527f4d61726b65743a20556e617574686f72697a656420757365720000000000000060448201526064016106cc565b80516020808301516040808501516001600160a01b038a8116600090815261016186528381208b825286528381208181556001810180546001600160a01b03199081169091556002820180549091169055600381018290556004810191909155600501805460ff1916905582518a8152818316958101959095529293909284169185917f98f89a2b436b69e0676a7b931052dd280cc0625eb577fb5df17e22e2d3474542910160405180910390a350919695505050505050565b61012d80546001600160a01b038381166001600160a01b0319831681179093556040519116919082907f8be0079c531659141344cd1fd0a4f28419497f9722a3daafe3b4186f6b6457e090600090a35050565b600083516001600160401b03811115611c7a57611c7a613053565b604051908082528060200260200182016040528015611ca3578160200160208202803683370190505b50845186519192503391889114611cf55760405162461bcd60e51b815260206004820152601660248201527506c656e677468206e6f74206d617463682041202620560541b60448201526064016106cc565b8451875114611d3f5760405162461bcd60e51b81526020600482015260166024820152756c656e677468206e6f74206d6174636820412026204560501b60448201526064016106cc565b60005b875181101561223f57600042878381518110611d6057611d6061303d565b602002602001015162015180611d769190612f84565b611d809190612f6c565b90506000836001600160a01b031662fdd58e868c8681518110611da557611da561303d565b60200260200101516040518363ffffffff1660e01b8152600401611dde9291906001600160a01b03929092168252602082015260400190565b60206040518083038186803b158015611df657600080fd5b505afa158015611e0a573d6000803e3d6000fd5b505050506040513d601f19601f82011682018060405250810190611e2e9190612cdc565b905060008111611e765760405162461bcd60e51b81526020600482015260136024820152724173736574206e6f7420617661696c61626c6560681b60448201526064016106cc565b60405163e985e9c560e01b81526001600160a01b03868116600483015230602483015285169063e985e9c59060440160206040518083038186803b158015611ebd57600080fd5b505afa158015611ed1573d6000803e3d6000fd5b505050506040513d601f19601f82011682018060405250810190611ef59190612c7c565b611f415760405162461bcd60e51b815260206004820152601e60248201527f54686520636f6e7472616374206973206e6f7420617574686f72697a6564000060448201526064016106cc565b6000898481518110611f5557611f5561303d565b602002602001015111611faa5760405162461bcd60e51b815260206004820152601d60248201527f50726963652073686f756c6420626520626967676572207468616e203000000060448201526064016106cc565b6000888481518110611fbe57611fbe61303d565b6020026020010151116120135760405162461bcd60e51b815260206004820152601a60248201527f4461797320696e2066757475726520697320726571756972656400000000000060448201526064016106cc565b6001600160a01b038b166000908152610163602052604081208054916120388361300c565b90915550506001600160a01b038b16600090815261016360205260409020548651819088908690811061206d5761206d61303d565b6020026020010181815250506040518060c001604052808c86815181106120965761209661303d565b60200260200101518152602001876001600160a01b031681526020018d6001600160a01b031681526020018b86815181106120d3576120d361303d565b6020026020010151815260200184815260200189151581525061016160008e6001600160a01b03166001600160a01b0316815260200190815260200160002060008381526020019081526020016000206000820151816000015560208201518160010160006101000a8154816001600160a01b0302191690836001600160a01b0316021790555060408201518160020160006101000a8154816001600160a01b0302191690836001600160a01b03160217905550606082015181600301556080820151816004015560a08201518160050160006101000a81548160ff02191690831515021790555090505061016460008154809291906121d29061300c565b90915550506040805180820182529182526001600160a01b038d8116602080850191825261016454600090815261016290915292909220925183559051600190920180546001600160a01b03191692909116919091179055508190506122378161300c565b915050611d42565b50816001600160a01b0316876040516122589190612d5c565b60405180910390207f0ad78710727c92732061306b2a1096ec6f8a2edc3b146b377e0bfde637641f47858b8a8a6040516122959493929190612e2a565b60405180910390a35050505050505050565b336000426122b88562015180612f84565b6122c29190612f6c565b604051627eeac760e11b81526001600160a01b0384811660048301526024820189905291925088916000919083169062fdd58e9060440160206040518083038186803b15801561231157600080fd5b505afa158015612325573d6000803e3d6000fd5b505050506040513d601f19601f820116820180604052508101906123499190612cdc565b9050600081116123915760405162461bcd60e51b81526020600482015260136024820152724173736574206e6f7420617661696c61626c6560681b60448201526064016106cc565b60405163e985e9c560e01b81526001600160a01b03858116600483015230602483015283169063e985e9c59060440160206040518083038186803b1580156123d857600080fd5b505afa1580156123ec573d6000803e3d6000fd5b505050506040513d601f19601f820116820180604052508101906124109190612c7c565b61245c5760405162461bcd60e51b815260206004820152601e60248201527f54686520636f6e7472616374206973206e6f7420617574686f72697a6564000060448201526064016106cc565b600086116124ac5760405162461bcd60e51b815260206004820152601a60248201527f6461797320696e2066757475726520697320726571756972656400000000000060448201526064016106cc565b6001600160a01b0389166000908152610163602052604081208054916124d18361300c565b9190505550600061016360008b6001600160a01b03166001600160a01b031681526020019081526020016000205490506040518060c001604052808a8152602001866001600160a01b031681526020018b6001600160a01b0316815260200189815260200185815260200187151581525061016160008c6001600160a01b03166001600160a01b0316815260200190815260200160002060008381526020019081526020016000206000820151816000015560208201518160010160006101000a8154816001600160a01b0302191690836001600160a01b0316021790555060408201518160020160006101000a8154816001600160a01b0302191690836001600160a01b03160217905550606082015181600301556080820151816004015560a08201518160050160006101000a81548160ff02191690831515021790555090505061016460008154809291906126289061300c565b90915550506040805180820182528281526001600160a01b038c8116602080840182815261016454600090815261016283528690209451855551600190940180546001600160a01b031916948416949094179093558351858152928301529181018a905260608101869052908616908a907f3692c2e473686659b62de88a2ceb823a0585c86bf37d11ac339fcd06e497d5c89060800160405180910390a350505050505050505050565b600054610100900460ff166126f95760405162461bcd60e51b81526004016106cc90612ef1565b610b74600054610100900460ff166127235760405162461bcd60e51b81526004016106cc90612ef1565b610b7433611c0c565b6040518060c001604052806000815260200160006001600160a01b0316815260200160006001600160a01b0316815260200160008152602001600081526020016000151581525090565b80356001600160a01b038116811461278d57600080fd5b919050565b600082601f8301126127a357600080fd5b813560206001600160401b038211156127be576127be613053565b8160051b6127cd828201612f3c565b8381528281019086840183880185018910156127e857600080fd5b600093505b8584101561280b5780358352600193909301929184019184016127ed565b50979650505050505050565b600082601f83011261282857600080fd5b81356001600160401b0381111561284157612841613053565b612854601f8201601f1916602001612f3c565b81815284602083860101111561286957600080fd5b816020850160208301376000918101602001919091529392505050565b60008083601f84011261289857600080fd5b5081356001600160401b038111156128af57600080fd5b6020830191508360208285010111156128c757600080fd5b9250929050565b6000602082840312156128e057600080fd5b6128e982612776565b9392505050565b6000806040838503121561290357600080fd5b61290c83612776565b915061291a60208401612776565b90509250929050565b600080600080600060a0868803121561293b57600080fd5b61294486612776565b945061295260208701612776565b935060408601356001600160401b038082111561296e57600080fd5b61297a89838a01612792565b9450606088013591508082111561299057600080fd5b61299c89838a01612792565b935060808801359150808211156129b257600080fd5b506129bf88828901612817565b9150509295509295909350565b6000806000606084860312156129e157600080fd5b6129ea84612776565b92506129f860208501612776565b9150604084013590509250925092565b600080600080600060808688031215612a2057600080fd5b612a2986612776565b9450612a3760208701612776565b93506040860135925060608601356001600160401b03811115612a5957600080fd5b612a6588828901612886565b969995985093965092949392505050565b600080600080600060a08688031215612a8e57600080fd5b612a9786612776565b9450612aa560208701612776565b9350604086013592506060860135915060808601356001600160401b03811115612ace57600080fd5b6129bf88828901612817565b600080600080600060a08688031215612af257600080fd5b612afb86612776565b945060208601356001600160401b0380821115612b1757600080fd5b612b2389838a01612792565b95506040880135915080821115612b3957600080fd5b612b4589838a01612792565b94506060880135915080821115612b5b57600080fd5b50612b6888828901612792565b9250506080860135612b7981613069565b809150509295509295909350565b600080600060408486031215612b9c57600080fd5b612ba584612776565b925060208401356001600160401b03811115612bc057600080fd5b612bcc86828701612886565b9497909650939450505050565b60008060408385031215612bec57600080fd5b612bf583612776565b946020939093013593505050565b600080600060608486031215612c1857600080fd5b612c2184612776565b95602085013595506040909401359392505050565b600080600080600060a08688031215612c4e57600080fd5b612c5786612776565b94506020860135935060408601359250606086013591506080860135612b7981613069565b600060208284031215612c8e57600080fd5b81516128e981613069565b600060208284031215612cab57600080fd5b81356001600160e01b0319811681146128e957600080fd5b600060208284031215612cd557600080fd5b5035919050565b600060208284031215612cee57600080fd5b5051919050565b600081518084526020808501945080840160005b83811015612d2557815187529582019590820190600101612d09565b509495945050505050565b6bffffffffffffffffffffffff198460601b168152818360148301376000910160140190815292915050565b815160009082906020808601845b83811015612d8657815185529382019390820190600101612d6a565b50929695505050505050565b6040808252835182820181905260009190606090818501906020808901865b83811015612e0b57815180518652838101516001600160a01b039081168588015288820151168887015286810151878701526080808201519087015260a09081015115159086015260c09094019390820190600101612db1565b50508683039087015250612e1f8187612cf5565b979650505050505050565b608081526000612e3d6080830187612cf5565b6001600160a01b03861660208401528281036040840152612e5e8186612cf5565b90508281036060840152612e1f8185612cf5565b600060208083528351808285015260005b81811015612e9f57858101830151858201604001528201612e83565b81811115612eb1576000604083870101525b50601f01601f1916929092016040019392505050565b60208082526010908201526f14185d5cd8589b194e881c185d5cd95960821b604082015260600190565b6020808252602b908201527f496e697469616c697a61626c653a20636f6e7472616374206973206e6f74206960408201526a6e697469616c697a696e6760a81b606082015260800190565b604051601f8201601f191681016001600160401b0381118282101715612f6457612f64613053565b604052919050565b60008219821115612f7f57612f7f613027565b500190565b6000816000190483118215151615612f9e57612f9e613027565b500290565b600082821015612fb557612fb5613027565b500390565b600081612fc957612fc9613027565b506000190190565b600181811c90821680612fe557607f821691505b6020821081141561300657634e487b7160e01b600052602260045260246000fd5b50919050565b600060001982141561302057613020613027565b5060010190565b634e487b7160e01b600052601160045260246000fd5b634e487b7160e01b600052603260045260246000fd5b634e487b7160e01b600052604160045260246000fd5b801515811461116157600080fdfea264697066735822122064774b2607af84deb896f2964d36a51e80a063feeb9bac89343fdf89db1c303d64736f6c63430008070033",
    "linkReferences": {},
    "deployedLinkReferences": {}
}