{
  "_format": "hh-sol-artifact-1",
  "contractName": "Market",
  "sourceName": "contracts/Market.sol",
  "abi": [
    {
      "anonymous": false,
      "inputs": [
        {
          "indexed": true,
          "internalType": "address",
          "name": "owner",
          "type": "address"
        },
        {
          "indexed": true,
          "internalType": "address",
          "name": "spender",
          "type": "address"
        },
        {
          "indexed": false,
          "internalType": "uint256",
          "name": "value",
          "type": "uint256"
        }
      ],
      "name": "Approval",
      "type": "event"
    },
    {
      "anonymous": false,
      "inputs": [
        {
          "indexed": false,
          "internalType": "uint256[]",
          "name": "id",
          "type": "uint256[]"
        },
        {
          "indexed": true,
          "internalType": "uint256[]",
          "name": "assetId",
          "type": "uint256[]"
        },
        {
          "indexed": true,
          "internalType": "address",
          "name": "seller",
          "type": "address"
        },
        {
          "indexed": false,
          "internalType": "address",
          "name": "nftAddress",
          "type": "address"
        },
        {
          "indexed": false,
          "internalType": "uint256[]",
          "name": "priceInWei",
          "type": "uint256[]"
        },
        {
          "indexed": false,
          "internalType": "uint256[]",
          "name": "expiresAt",
          "type": "uint256[]"
        }
      ],
      "name": "OrderBatchCreated",
      "type": "event"
    },
    {
      "anonymous": false,
      "inputs": [
        {
          "indexed": false,
          "internalType": "uint256",
          "name": "id",
          "type": "uint256"
        },
        {
          "indexed": true,
          "internalType": "uint256",
          "name": "assetId",
          "type": "uint256"
        },
        {
          "indexed": true,
          "internalType": "address",
          "name": "seller",
          "type": "address"
        },
        {
          "indexed": false,
          "internalType": "address",
          "name": "nftAddress",
          "type": "address"
        }
      ],
      "name": "OrderCancelled",
      "type": "event"
    },
    {
      "anonymous": false,
      "inputs": [
        {
          "indexed": false,
          "internalType": "uint256",
          "name": "id",
          "type": "uint256"
        },
        {
          "indexed": true,
          "internalType": "uint256",
          "name": "assetId",
          "type": "uint256"
        },
        {
          "indexed": true,
          "internalType": "address",
          "name": "seller",
          "type": "address"
        },
        {
          "indexed": false,
          "internalType": "address",
          "name": "nftAddress",
          "type": "address"
        },
        {
          "indexed": false,
          "internalType": "uint256",
          "name": "priceInWei",
          "type": "uint256"
        },
        {
          "indexed": false,
          "internalType": "uint256",
          "name": "expiresAt",
          "type": "uint256"
        }
      ],
      "name": "OrderCreated",
      "type": "event"
    },
    {
      "anonymous": false,
      "inputs": [
        {
          "indexed": false,
          "internalType": "uint256",
          "name": "id",
          "type": "uint256"
        },
        {
          "indexed": true,
          "internalType": "uint256",
          "name": "assetId",
          "type": "uint256"
        },
        {
          "indexed": true,
          "internalType": "address",
          "name": "seller",
          "type": "address"
        },
        {
          "indexed": false,
          "internalType": "address",
          "name": "nftAddress",
          "type": "address"
        },
        {
          "indexed": false,
          "internalType": "uint256",
          "name": "totalPrice",
          "type": "uint256"
        },
        {
          "indexed": true,
          "internalType": "address",
          "name": "buyer",
          "type": "address"
        }
      ],
      "name": "OrderSuccessful",
      "type": "event"
    },
    {
      "anonymous": false,
      "inputs": [
        {
          "indexed": true,
          "internalType": "address",
          "name": "previousOwner",
          "type": "address"
        },
        {
          "indexed": true,
          "internalType": "address",
          "name": "newOwner",
          "type": "address"
        }
      ],
      "name": "OwnershipTransferred",
      "type": "event"
    },
    {
      "anonymous": false,
      "inputs": [
        {
          "indexed": false,
          "internalType": "address",
          "name": "account",
          "type": "address"
        }
      ],
      "name": "Paused",
      "type": "event"
    },
    {
      "anonymous": false,
      "inputs": [
        {
          "indexed": true,
          "internalType": "address",
          "name": "from",
          "type": "address"
        },
        {
          "indexed": true,
          "internalType": "address",
          "name": "to",
          "type": "address"
        },
        {
          "indexed": false,
          "internalType": "uint256",
          "name": "value",
          "type": "uint256"
        }
      ],
      "name": "Transfer",
      "type": "event"
    },
    {
      "anonymous": false,
      "inputs": [
        {
          "indexed": false,
          "internalType": "address",
          "name": "account",
          "type": "address"
        }
      ],
      "name": "Unpaused",
      "type": "event"
    },
    {
      "inputs": [
        {
          "internalType": "address",
          "name": "owner",
          "type": "address"
        },
        {
          "internalType": "address",
          "name": "spender",
          "type": "address"
        }
      ],
      "name": "allowance",
      "outputs": [
        {
          "internalType": "uint256",
          "name": "",
          "type": "uint256"
        }
      ],
      "stateMutability": "view",
      "type": "function"
    },
    {
      "inputs": [
        {
          "internalType": "address",
          "name": "spender",
          "type": "address"
        },
        {
          "internalType": "uint256",
          "name": "amount",
          "type": "uint256"
        }
      ],
      "name": "approve",
      "outputs": [
        {
          "internalType": "bool",
          "name": "",
          "type": "bool"
        }
      ],
      "stateMutability": "nonpayable",
      "type": "function"
    },
    {
      "inputs": [
        {
          "internalType": "address",
          "name": "account",
          "type": "address"
        }
      ],
      "name": "balanceOf",
      "outputs": [
        {
          "internalType": "uint256",
          "name": "",
          "type": "uint256"
        }
      ],
      "stateMutability": "view",
      "type": "function"
    },
    {
      "inputs": [
        {
          "internalType": "address",
          "name": "nftAddress",
          "type": "address"
        },
        {
          "internalType": "uint256",
          "name": "orderId",
          "type": "uint256"
        }
      ],
      "name": "cancelOrder",
      "outputs": [],
      "stateMutability": "nonpayable",
      "type": "function"
    },
    {
      "inputs": [
        {
          "internalType": "address",
          "name": "nftAddress",
          "type": "address"
        },
        {
          "internalType": "uint256[]",
          "name": "assetId",
          "type": "uint256[]"
        },
        {
          "internalType": "uint256[]",
          "name": "priceInWei",
          "type": "uint256[]"
        },
        {
          "internalType": "uint256[]",
          "name": "expiresAt",
          "type": "uint256[]"
        },
        {
          "internalType": "bool",
          "name": "exPay",
          "type": "bool"
        }
      ],
      "name": "createBatchOrder",
      "outputs": [],
      "stateMutability": "nonpayable",
      "type": "function"
    },
    {
      "inputs": [
        {
          "internalType": "address",
          "name": "nftAddress",
          "type": "address"
        },
        {
          "internalType": "uint256",
          "name": "id",
          "type": "uint256"
        },
        {
          "internalType": "uint256",
          "name": "priceInWei",
          "type": "uint256"
        },
        {
          "internalType": "uint256",
          "name": "expiresAt",
          "type": "uint256"
        },
        {
          "internalType": "bool",
          "name": "exPay",
          "type": "bool"
        }
      ],
      "name": "createOrder",
      "outputs": [],
      "stateMutability": "nonpayable",
      "type": "function"
    },
    {
      "inputs": [],
      "name": "decimals",
      "outputs": [
        {
          "internalType": "uint8",
          "name": "",
          "type": "uint8"
        }
      ],
      "stateMutability": "view",
      "type": "function"
    },
    {
      "inputs": [
        {
          "internalType": "address",
          "name": "spender",
          "type": "address"
        },
        {
          "internalType": "uint256",
          "name": "subtractedValue",
          "type": "uint256"
        }
      ],
      "name": "decreaseAllowance",
      "outputs": [
        {
          "internalType": "bool",
          "name": "",
          "type": "bool"
        }
      ],
      "stateMutability": "nonpayable",
      "type": "function"
    },
    {
      "inputs": [],
      "name": "idexCount",
      "outputs": [
        {
          "internalType": "uint256",
          "name": "",
          "type": "uint256"
        }
      ],
      "stateMutability": "view",
      "type": "function"
    },
    {
      "inputs": [
        {
          "internalType": "address",
          "name": "spender",
          "type": "address"
        },
        {
          "internalType": "uint256",
          "name": "addedValue",
          "type": "uint256"
        }
      ],
      "name": "increaseAllowance",
      "outputs": [
        {
          "internalType": "bool",
          "name": "",
          "type": "bool"
        }
      ],
      "stateMutability": "nonpayable",
      "type": "function"
    },
    {
      "inputs": [
        {
          "internalType": "address",
          "name": "_tokenAd",
          "type": "address"
        }
      ],
      "name": "initialize",
      "outputs": [],
      "stateMutability": "nonpayable",
      "type": "function"
    },
    {
      "inputs": [],
      "name": "name",
      "outputs": [
        {
          "internalType": "string",
          "name": "",
          "type": "string"
        }
      ],
      "stateMutability": "view",
      "type": "function"
    },
    {
      "inputs": [
        {
          "internalType": "address",
          "name": "",
          "type": "address"
        },
        {
          "internalType": "address",
          "name": "",
          "type": "address"
        },
        {
          "internalType": "uint256[]",
          "name": "",
          "type": "uint256[]"
        },
        {
          "internalType": "uint256[]",
          "name": "",
          "type": "uint256[]"
        },
        {
          "internalType": "bytes",
          "name": "",
          "type": "bytes"
        }
      ],
      "name": "onERC1155BatchReceived",
      "outputs": [
        {
          "internalType": "bytes4",
          "name": "",
          "type": "bytes4"
        }
      ],
      "stateMutability": "nonpayable",
      "type": "function"
    },
    {
      "inputs": [
        {
          "internalType": "address",
          "name": "",
          "type": "address"
        },
        {
          "internalType": "address",
          "name": "",
          "type": "address"
        },
        {
          "internalType": "uint256",
          "name": "",
          "type": "uint256"
        },
        {
          "internalType": "uint256",
          "name": "",
          "type": "uint256"
        },
        {
          "internalType": "bytes",
          "name": "",
          "type": "bytes"
        }
      ],
      "name": "onERC1155Received",
      "outputs": [
        {
          "internalType": "bytes4",
          "name": "",
          "type": "bytes4"
        }
      ],
      "stateMutability": "nonpayable",
      "type": "function"
    },
    {
      "inputs": [
        {
          "internalType": "uint256",
          "name": "",
          "type": "uint256"
        }
      ],
      "name": "orderByIndex",
      "outputs": [
        {
          "internalType": "uint256",
          "name": "orderID",
          "type": "uint256"
        },
        {
          "internalType": "address",
          "name": "nftAddress",
          "type": "address"
        }
      ],
      "stateMutability": "view",
      "type": "function"
    },
    {
      "inputs": [
        {
          "internalType": "address",
          "name": "",
          "type": "address"
        },
        {
          "internalType": "uint256",
          "name": "",
          "type": "uint256"
        }
      ],
      "name": "orderByOrderId",
      "outputs": [
        {
          "internalType": "uint256",
          "name": "id",
          "type": "uint256"
        },
        {
          "internalType": "address",
          "name": "seller",
          "type": "address"
        },
        {
          "internalType": "address",
          "name": "nftAddress",
          "type": "address"
        },
        {
          "internalType": "uint256",
          "name": "price",
          "type": "uint256"
        },
        {
          "internalType": "uint256",
          "name": "expiresAt",
          "type": "uint256"
        },
        {
          "internalType": "bool",
          "name": "exPayment",
          "type": "bool"
        }
      ],
      "stateMutability": "view",
      "type": "function"
    },
    {
      "inputs": [
        {
          "internalType": "address",
          "name": "",
          "type": "address"
        }
      ],
      "name": "orderCount",
      "outputs": [
        {
          "internalType": "uint256",
          "name": "",
          "type": "uint256"
        }
      ],
      "stateMutability": "view",
      "type": "function"
    },
    {
      "inputs": [
        {
          "internalType": "uint256",
          "name": "last",
          "type": "uint256"
        }
      ],
      "name": "orderList",
      "outputs": [
        {
          "components": [
            {
              "internalType": "uint256",
              "name": "id",
              "type": "uint256"
            },
            {
              "internalType": "address",
              "name": "seller",
              "type": "address"
            },
            {
              "internalType": "address",
              "name": "nftAddress",
              "type": "address"
            },
            {
              "internalType": "uint256",
              "name": "price",
              "type": "uint256"
            },
            {
              "internalType": "uint256",
              "name": "expiresAt",
              "type": "uint256"
            },
            {
              "internalType": "bool",
              "name": "exPayment",
              "type": "bool"
            }
          ],
          "internalType": "struct Market.Order[]",
          "name": "",
          "type": "tuple[]"
        },
        {
          "internalType": "uint256[]",
          "name": "",
          "type": "uint256[]"
        }
      ],
      "stateMutability": "view",
      "type": "function"
    },
    {
      "inputs": [
        {
          "internalType": "address",
          "name": "nftAddress",
          "type": "address"
        },
        {
          "internalType": "uint256",
          "name": "from",
          "type": "uint256"
        },
        {
          "internalType": "uint256",
          "name": "to",
          "type": "uint256"
        }
      ],
      "name": "orderListByAddress",
      "outputs": [
        {
          "components": [
            {
              "internalType": "uint256",
              "name": "id",
              "type": "uint256"
            },
            {
              "internalType": "address",
              "name": "seller",
              "type": "address"
            },
            {
              "internalType": "address",
              "name": "nftAddress",
              "type": "address"
            },
            {
              "internalType": "uint256",
              "name": "price",
              "type": "uint256"
            },
            {
              "internalType": "uint256",
              "name": "expiresAt",
              "type": "uint256"
            },
            {
              "internalType": "bool",
              "name": "exPayment",
              "type": "bool"
            }
          ],
          "internalType": "struct Market.Order[]",
          "name": "",
          "type": "tuple[]"
        },
        {
          "internalType": "uint256[]",
          "name": "",
          "type": "uint256[]"
        }
      ],
      "stateMutability": "view",
      "type": "function"
    },
    {
      "inputs": [],
      "name": "owner",
      "outputs": [
        {
          "internalType": "address",
          "name": "",
          "type": "address"
        }
      ],
      "stateMutability": "view",
      "type": "function"
    },
    {
      "inputs": [],
      "name": "paused",
      "outputs": [
        {
          "internalType": "bool",
          "name": "",
          "type": "bool"
        }
      ],
      "stateMutability": "view",
      "type": "function"
    },
    {
      "inputs": [],
      "name": "payToken",
      "outputs": [
        {
          "internalType": "contract IERC20Upgradeable",
          "name": "",
          "type": "address"
        }
      ],
      "stateMutability": "view",
      "type": "function"
    },
    {
      "inputs": [],
      "name": "renounceOwnership",
      "outputs": [],
      "stateMutability": "nonpayable",
      "type": "function"
    },
    {
      "inputs": [
        {
          "internalType": "address",
          "name": "nftAddress",
          "type": "address"
        },
        {
          "internalType": "address",
          "name": "newOwner",
          "type": "address"
        },
        {
          "internalType": "uint256",
          "name": "orderId",
          "type": "uint256"
        }
      ],
      "name": "safeExecuteOrder",
      "outputs": [],
      "stateMutability": "nonpayable",
      "type": "function"
    },
    {
      "inputs": [
        {
          "internalType": "bytes4",
          "name": "interfaceId",
          "type": "bytes4"
        }
      ],
      "name": "supportsInterface",
      "outputs": [
        {
          "internalType": "bool",
          "name": "",
          "type": "bool"
        }
      ],
      "stateMutability": "view",
      "type": "function"
    },
    {
      "inputs": [],
      "name": "symbol",
      "outputs": [
        {
          "internalType": "string",
          "name": "",
          "type": "string"
        }
      ],
      "stateMutability": "view",
      "type": "function"
    },
    {
      "inputs": [],
      "name": "totalSupply",
      "outputs": [
        {
          "internalType": "uint256",
          "name": "",
          "type": "uint256"
        }
      ],
      "stateMutability": "view",
      "type": "function"
    },
    {
      "inputs": [
        {
          "internalType": "address",
          "name": "to",
          "type": "address"
        },
        {
          "internalType": "uint256",
          "name": "amount",
          "type": "uint256"
        }
      ],
      "name": "transfer",
      "outputs": [
        {
          "internalType": "bool",
          "name": "",
          "type": "bool"
        }
      ],
      "stateMutability": "nonpayable",
      "type": "function"
    },
    {
      "inputs": [
        {
          "internalType": "address",
          "name": "from",
          "type": "address"
        },
        {
          "internalType": "address",
          "name": "to",
          "type": "address"
        },
        {
          "internalType": "uint256",
          "name": "amount",
          "type": "uint256"
        }
      ],
      "name": "transferFrom",
      "outputs": [
        {
          "internalType": "bool",
          "name": "",
          "type": "bool"
        }
      ],
      "stateMutability": "nonpayable",
      "type": "function"
    },
    {
      "inputs": [
        {
          "internalType": "address",
          "name": "newOwner",
          "type": "address"
        }
      ],
      "name": "transferOwnership",
      "outputs": [],
      "stateMutability": "nonpayable",
      "type": "function"
    }
  ],
  "bytecode": "0x608060405234801561001057600080fd5b50612e0a806100206000396000f3fe608060405234801561001057600080fd5b50600436106101da5760003560e01c8063715018a611610104578063a457c2d7116100a2578063d2edb14611610071578063d2edb146146104e7578063dd62ed3e146104fa578063f23a6e6114610533578063f2fde38b1461055257600080fd5b8063a457c2d714610476578063a9059cbb14610489578063bc197c811461049c578063c4d66de8146104d457600080fd5b80638da5cb5b116100de5780638da5cb5b14610421578063931ab4541461044757806395d89b411461045a57806396336b301461046257600080fd5b8063715018a6146103f357806376f75e7f146103fb57806381f509e21461040e57600080fd5b806331936a9a1161017c5780636ba5fcfa1161014b5780636ba5fcfa1461037e5780636edc69b91461039f57806370a08231146103a9578063713d856b146103d257600080fd5b806331936a9a146102fd578063395093511461034b5780635c975abb1461035e5780636a2061371461036957600080fd5b8063095ea7b3116101b8578063095ea7b3146102b657806318160ddd146102c957806323b872dd146102db578063313ce567146102ee57600080fd5b806301d45b49146101df57806301ffc9a71461027e57806306fdde03146102a1575b600080fd5b61023e6101ed366004612909565b61016160209081526000928352604080842090915290825290208054600182015460028301546003840154600485015460059095015493946001600160a01b03938416949290931692909160ff1686565b604080519687526001600160a01b039586166020880152939094169285019290925260608401526080830152151560a082015260c0015b60405180910390f35b61029161028c3660046129c9565b610565565b6040519015158152602001610275565b6102a961059c565b6040516102759190612b76565b6102916102c4366004612909565b61062e565b6035545b604051908152602001610275565b6102916102e93660046127bc565b610646565b60405160128152602001610275565b61032e61030b3660046129f3565b61016260205260009081526040902080546001909101546001600160a01b031682565b604080519283526001600160a01b03909116602083015201610275565b610291610359366004612909565b61066a565b60fb5460ff16610291565b61037c610377366004612909565b6106a9565b005b61039161038c366004612933565b6106e4565b604051610275929190612a96565b6102cd6101605481565b6102cd6103b73660046126be565b6001600160a01b031660009081526033602052604090205490565b6102cd6103e03660046126be565b6101636020526000908152604090205481565b61037c610aef565b6103916104093660046129f3565b610b26565b61037c61041c3660046127bc565b610f36565b61012d546001600160a01b03165b6040516001600160a01b039091168152602001610275565b61037c61045536600461285c565b610f95565b6102a9610fcc565b61015f5461042f906001600160a01b031681565b610291610484366004612909565b610fdb565b610291610497366004612909565b61106d565b6104bb6104aa366004612713565b63bc197c8160e01b95945050505050565b6040516001600160e01b03199091168152602001610275565b61037c6104e23660046126be565b61107b565b61037c6104f5366004612966565b611159565b6102cd6105083660046126e0565b6001600160a01b03918216600090815260346020908152604080832093909416825291909152205490565b6104bb6105413660046127f8565b63f23a6e6160e01b95945050505050565b61037c6105603660046126be565b611189565b60006001600160e01b03198216630271189760e51b148061059657506301ffc9a760e01b6001600160e01b03198316145b92915050565b6060603680546105ab90612d2e565b80601f01602080910402602001604051908101604052809291908181526020018280546105d790612d2e565b80156106245780601f106105f957610100808354040283529160200191610624565b820191906000526020600020905b81548152906001019060200180831161060757829003601f168201915b5050505050905090565b60003361063c818585611225565b5060019392505050565b600033610654858285611349565b61065f8585856113d5565b506001949350505050565b3360008181526034602090815260408083206001600160a01b038716845290915281205490919061063c90829086906106a4908790612ce8565b611225565b60fb5460ff16156106d55760405162461bcd60e51b81526004016106cc90612bcb565b60405180910390fd5b6106df82826115a3565b505050565b6060808383116107445760405162461bcd60e51b815260206004820152602560248201527f4d61726b65743a20746f2073686f756c642062652068696768657220746861746044820152642066726f6d60d81b60648201526084016106cc565b60006107508585612d00565b90506000816001600160401b0381111561076c5761076c612db0565b6040519080825280602002602001820160405280156107a557816020015b610792612564565b81526020019060019003908161078a5790505b5090506000826001600160401b038111156107c2576107c2612db0565b6040519080825280602002602001820160405280156107eb578160200160208202803683370190505b5090506000875b87811161098f576001600160a01b03808b16600090815261016160209081526040808320858452825291829020825160c0810184528154815260018201548516928101929092526002810154909316918101919091526003820154606082015260048201546080820181905260059092015460ff16151560a0820152901561097c57428160800151111561097c57604081810151602083015183519251627eeac760e11b81526001600160a01b0391821660048201526024810193909352909160009183169062fdd58e9060440160206040518083038186803b1580156108d857600080fd5b505afa1580156108ec573d6000803e3d6000fd5b505050506040513d601f19601f820116820180604052508101906109109190612a0c565b90508015610979578287868151811061092b5761092b612d9a565b602002602001018190525061016260008581526020019081526020016000206000015486868151811061096057610960612d9a565b60209081029190910101528461097581612d69565b9550505b50505b508061098781612d69565b9150506107f2565b50838114156109a557509093509150610ae79050565b8015610ae2576000816001600160401b038111156109c5576109c5612db0565b6040519080825280602002602001820160405280156109fe57816020015b6109eb612564565b8152602001906001900390816109e35790505b5090506000826001600160401b03811115610a1b57610a1b612db0565b604051908082528060200260200182016040528015610a44578160200160208202803683370190505b50905060005b83811015610ad257858181518110610a6457610a64612d9a565b6020026020010151838281518110610a7e57610a7e612d9a565b6020026020010181905250848181518110610a9b57610a9b612d9a565b6020026020010151828281518110610ab557610ab5612d9a565b602090810291909101015280610aca81612d69565b915050610a4a565b509096509450610ae79350505050565b505050505b935093915050565b61012d546001600160a01b03163314610b1a5760405162461bcd60e51b81526004016106cc90612bf5565b610b2460006117a6565b565b60608060008311610b875760405162461bcd60e51b815260206004820152602560248201527f4d61726b65743a20696e7075742073686f756c64206265206869676865722074604482015264068616e20360dc1b60648201526084016106cc565b6000836001600160401b03811115610ba157610ba1612db0565b604051908082528060200260200182016040528015610bda57816020015b610bc7612564565b815260200190600190039081610bbf5790505b5090506000846001600160401b03811115610bf757610bf7612db0565b604051908082528060200260200182016040528015610c20578160200160208202803683370190505b50610160549091506000905b8015610ddf576000818152610162602090815260408083206001808201546001600160a01b03908116865261016185528386209254865291845293829020825160c0810184528154815294810154821693850193909352600283015416908301526003810154606083015260048101546080830181905260059091015460ff16151560a0830152421015610dcc57604081810151602083015183519251627eeac760e11b81526001600160a01b0391821660048201526024810193909352909160009183169062fdd58e9060440160206040518083038186803b158015610d1257600080fd5b505afa158015610d26573d6000803e3d6000fd5b505050506040513d601f19601f82011682018060405250810190610d4a9190612a0c565b90508015610db35782878681518110610d6557610d65612d9a565b6020026020010181905250610162600085815260200190815260200160002060000154868681518110610d9a57610d9a612d9a565b602090810291909101015284610daf81612d69565b9550505b89610dbf866001612ce8565b10610dc957600093505b50505b5080610dd781612d17565b915050610c2c565b5085811415610df357509094909350915050565b8015610f2e576000816001600160401b03811115610e1357610e13612db0565b604051908082528060200260200182016040528015610e4c57816020015b610e39612564565b815260200190600190039081610e315790505b5090506000826001600160401b03811115610e6957610e69612db0565b604051908082528060200260200182016040528015610e92578160200160208202803683370190505b50905060005b83811015610f2057858181518110610eb257610eb2612d9a565b6020026020010151838281518110610ecc57610ecc612d9a565b6020026020010181905250848181518110610ee957610ee9612d9a565b6020026020010151828281518110610f0357610f03612d9a565b602090810291909101015280610f1881612d69565b915050610e98565b509097909650945050505050565b505050915091565b60fb5460ff1615610f595760405162461bcd60e51b81526004016106cc90612bcb565b61012d546001600160a01b03163314610f845760405162461bcd60e51b81526004016106cc90612bf5565b610f8f8383836117f9565b50505050565b60fb5460ff1615610fb85760405162461bcd60e51b81526004016106cc90612bcb565b610fc58585858585611bd0565b5050505050565b6060603780546105ab90612d2e565b3360008181526034602090815260408083206001600160a01b0387168452909152812054909190838110156110605760405162461bcd60e51b815260206004820152602560248201527f45524332303a2064656372656173656420616c6c6f77616e63652062656c6f77604482015264207a65726f60d81b60648201526084016106cc565b61065f8286868403611225565b60003361063c8185856113d5565b600054610100900460ff166110965760005460ff161561109a565b303b155b6110fd5760405162461bcd60e51b815260206004820152602e60248201527f496e697469616c697a61626c653a20636f6e747261637420697320616c72656160448201526d191e481a5b9a5d1a585b1a5e995960921b60648201526084016106cc565b600054610100900460ff1615801561111f576000805461ffff19166101011790555b6111276121a1565b61015f80546001600160a01b0319166001600160a01b0384161790558015611155576000805461ff00191690555b5050565b60fb5460ff161561117c5760405162461bcd60e51b81526004016106cc90612bcb565b610fc585858585856121d0565b61012d546001600160a01b031633146111b45760405162461bcd60e51b81526004016106cc90612bf5565b6001600160a01b0381166112195760405162461bcd60e51b815260206004820152602660248201527f4f776e61626c653a206e6577206f776e657220697320746865207a65726f206160448201526564647265737360d01b60648201526084016106cc565b611222816117a6565b50565b6001600160a01b0383166112875760405162461bcd60e51b8152602060048201526024808201527f45524332303a20617070726f76652066726f6d20746865207a65726f206164646044820152637265737360e01b60648201526084016106cc565b6001600160a01b0382166112e85760405162461bcd60e51b815260206004820152602260248201527f45524332303a20617070726f766520746f20746865207a65726f206164647265604482015261737360f01b60648201526084016106cc565b6001600160a01b0383811660008181526034602090815260408083209487168084529482529182902085905590518481527f8c5be1e5ebec7d5bd14f71427d1e84f3dd0314c0f7b2291e5b200ac8c7c3b925910160405180910390a3505050565b6001600160a01b038381166000908152603460209081526040808320938616835292905220546000198114610f8f57818110156113c85760405162461bcd60e51b815260206004820152601d60248201527f45524332303a20696e73756666696369656e7420616c6c6f77616e636500000060448201526064016106cc565b610f8f8484848403611225565b6001600160a01b0383166114395760405162461bcd60e51b815260206004820152602560248201527f45524332303a207472616e736665722066726f6d20746865207a65726f206164604482015264647265737360d81b60648201526084016106cc565b6001600160a01b03821661149b5760405162461bcd60e51b815260206004820152602360248201527f45524332303a207472616e7366657220746f20746865207a65726f206164647260448201526265737360e81b60648201526084016106cc565b6001600160a01b038316600090815260336020526040902054818110156115135760405162461bcd60e51b815260206004820152602660248201527f45524332303a207472616e7366657220616d6f756e7420657863656564732062604482015265616c616e636560d01b60648201526084016106cc565b6001600160a01b0380851660009081526033602052604080822085850390559185168152908120805484929061154a908490612ce8565b92505081905550826001600160a01b0316846001600160a01b03167fddf252ad1be2c89b69c2b068fc378daa952ba7f163c4a11628f55a4df523b3ef8460405161159691815260200190565b60405180910390a3610f8f565b6115ab612564565b6001600160a01b03838116600090815261016160209081526040808320868452825291829020825160c08101845281548082526001830154861693820193909352600282015490941692840192909252600382015460608401526004820154608084015260059091015460ff16151560a083015233919061166e5760405162461bcd60e51b815260206004820152601e60248201527f4d61726b65743a206173736574206973206e6f74207075626c6973686564000060448201526064016106cc565b816001600160a01b031681602001516001600160a01b031614806116a0575061012d546001600160a01b038381169116145b6116ec5760405162461bcd60e51b815260206004820152601960248201527f4d61726b65743a20556e617574686f72697a656420757365720000000000000060448201526064016106cc565b80516020808301516040808501516001600160a01b038a8116600090815261016186528381208b825286528381208181556001810180546001600160a01b03199081169091556002820180549091169055600381018290556004810191909155600501805460ff1916905582518a8152818316958101959095529293909284169185917f98f89a2b436b69e0676a7b931052dd280cc0625eb577fb5df17e22e2d3474542910160405180910390a350919695505050505050565b61012d80546001600160a01b038381166001600160a01b0319831681179093556040519116919082907f8be0079c531659141344cd1fd0a4f28419497f9722a3daafe3b4186f6b6457e090600090a35050565b611801612564565b6001600160a01b03848116600090815261016160209081526040808320868452825291829020825160c08101845281548082526001830154861693820193909352600282015490941692840192909252600382015460608401526004820154608084015260059091015460ff16151560a0830152339186916118c55760405162461bcd60e51b815260206004820152601c60248201527f4d61726b65743a206e6f74206c697374696e6720666f722073616c650000000060448201526064016106cc565b856001600160a01b031681602001516001600160a01b0316141561193d5760405162461bcd60e51b815260206004820152602960248201527f4d61726b65743a2073656e64657220616e64206e6577206f776e657220617265604482015268207468652073616d6560b81b60648201526084016106cc565b428160800151116119885760405162461bcd60e51b815260206004820152601560248201527413585c9ad95d0e881bdc99195c88195e1c1a5c9959605a1b60448201526064016106cc565b60208101518151604051627eeac760e11b81526001600160a01b039283166004820152602481019190915260009184169062fdd58e9060440160206040518083038186803b1580156119d957600080fd5b505afa1580156119ed573d6000803e3d6000fd5b505050506040513d601f19601f82011682018060405250810190611a119190612a0c565b11611a5e5760405162461bcd60e51b815260206004820152601b60248201527f4d61726b65743a206173736574206e6f7420617661696c61626c65000000000060448201526064016106cc565b6001600160a01b038781166000908152610161602090815260408083208984528252808320838155600180820180546001600160a01b0319908116909155600283018054909116905560038083018690556004808401969096556005909201805460ff191690559286015186519251637921219560e11b8152908616948101949094528a851660248501526044840191909152606483019190915260a0608483015260a48201526203078360ec1b60c48201529083169063f242432a9060e401600060405180830381600087803b158015611b3857600080fd5b505af1158015611b4c573d6000803e3d6000fd5b50505050826001600160a01b031681602001516001600160a01b0316867f379cbdfef41a46f312a20ff1b22852d767c763cadb2ef0a5a42ca572a66a50de84600001518b8660600151604051611bbe939291909283526001600160a01b03919091166020830152604082015260600190565b60405180910390a49695505050505050565b600083516001600160401b03811115611beb57611beb612db0565b604051908082528060200260200182016040528015611c14578160200160208202803683370190505b50845186519192503391889114611c6d5760405162461bcd60e51b815260206004820152601e60248201527f4d61726b65743a206c656e677468206e6f74206d61746368204120262050000060448201526064016106cc565b8451875114611cbe5760405162461bcd60e51b815260206004820152601e60248201527f4d61726b65743a206c656e677468206e6f74206d61746368204120262045000060448201526064016106cc565b60005b8751811015612139576000826001600160a01b031662fdd58e858b8581518110611ced57611ced612d9a565b60200260200101516040518363ffffffff1660e01b8152600401611d269291906001600160a01b03929092168252602082015260400190565b60206040518083038186803b158015611d3e57600080fd5b505afa158015611d52573d6000803e3d6000fd5b505050506040513d601f19601f82011682018060405250810190611d769190612a0c565b905060008111611dc85760405162461bcd60e51b815260206004820152601f60248201527f4d61726b65743a2073656e646572206973206e6f7420746865206f776e65720060448201526064016106cc565b60405163e985e9c560e01b81526001600160a01b03858116600483015230602483015284169063e985e9c59060440160206040518083038186803b158015611e0f57600080fd5b505afa158015611e23573d6000803e3d6000fd5b505050506040513d601f19601f82011682018060405250810190611e4791906129ac565b611e935760405162461bcd60e51b815260206004820181905260248201527f4d61726b65743a20636f6e747261637420697320756e617574686f72697a656460448201526064016106cc565b6000888381518110611ea757611ea7612d9a565b602002602001015111611f0a5760405162461bcd60e51b815260206004820152602560248201527f4d61726b65743a2070726963652073686f756c64206265206269676765722074604482015264068616e20360dc1b60648201526084016106cc565b42878381518110611f1d57611f1d612d9a565b602002602001015111611f425760405162461bcd60e51b81526004016106cc90612c2a565b6001600160a01b038a16600090815261016360205260408120805491611f6783612d69565b90915550506001600160a01b038a166000908152610163602052604090205485518190879085908110611f9c57611f9c612d9a565b6020026020010181815250506040518060c001604052808b8581518110611fc557611fc5612d9a565b60200260200101518152602001866001600160a01b031681526020018c6001600160a01b031681526020018a858151811061200257612002612d9a565b6020026020010151815260200189858151811061202157612021612d9a565b6020908102919091018101518252891515918101919091526001600160a01b03808e16600090815261016183526040808220868352845280822085518155938501516001850180549185166001600160a01b03199283161790559085015160028501805491909416911617909155606083015160038301556080830151600483015560a0909201516005909101805491151560ff199092169190911790556101608054916120ce83612d69565b90915550506040805180820182529182526001600160a01b038c8116602080850191825261016054600090815261016290915292909220925183559051600190920180546001600160a01b03191692909116919091179055508061213181612d69565b915050611cc1565b50816001600160a01b0316876040516121529190612a60565b60405180910390207f0ad78710727c92732061306b2a1096ec6f8a2edc3b146b377e0bfde637641f47858b8a8a60405161218f9493929190612b2e565b60405180910390a35050505050505050565b600054610100900460ff166121c85760405162461bcd60e51b81526004016106cc90612c6d565b610b24612534565b600033604051627eeac760e11b81526001600160a01b0380831660048301526024820188905291925087916000919083169062fdd58e9060440160206040518083038186803b15801561222257600080fd5b505afa158015612236573d6000803e3d6000fd5b505050506040513d601f19601f8201168201806040525081019061225a9190612a0c565b9050600081116122ac5760405162461bcd60e51b815260206004820152601f60248201527f4d61726b65743a2073656e646572206973206e6f7420746865206f776e65720060448201526064016106cc565b60405163e985e9c560e01b81526001600160a01b03848116600483015230602483015283169063e985e9c59060440160206040518083038186803b1580156122f357600080fd5b505afa158015612307573d6000803e3d6000fd5b505050506040513d601f19601f8201168201806040525081019061232b91906129ac565b6123775760405162461bcd60e51b815260206004820181905260248201527f4d61726b65743a20636f6e747261637420697320756e617574686f72697a656460448201526064016106cc565b4285116123965760405162461bcd60e51b81526004016106cc90612c2a565b6001600160a01b0388166000908152610163602052604081208054916123bb83612d69565b90915550506001600160a01b0380891660008181526101636020908152604080832054815160c0810183528d8152898716818501908152818401878152606083018f8152608084018f81528e151560a086019081529989526101618852868920868a52909752948720925183559051600183018054918a166001600160a01b0319928316179055905160028301805491909916911617909655905160038601559051600485015591516005909301805493151560ff19909416939093179092556101608054919261248b83612d69565b90915550506040805180820182528281526001600160a01b038b8116602080840182815261016054600090815261016283528690209451855551600190940180546001600160a01b03191694841694909417909355835185815292830152918101899052606081018890529085169089907f3692c2e473686659b62de88a2ceb823a0585c86bf37d11ac339fcd06e497d5c89060800160405180910390a3505050505050505050565b600054610100900460ff1661255b5760405162461bcd60e51b81526004016106cc90612c6d565b610b24336117a6565b6040518060c001604052806000815260200160006001600160a01b0316815260200160006001600160a01b0316815260200160008152602001600081526020016000151581525090565b80356001600160a01b03811681146125c557600080fd5b919050565b600082601f8301126125db57600080fd5b813560206001600160401b038211156125f6576125f6612db0565b8160051b612605828201612cb8565b83815282810190868401838801850189101561262057600080fd5b600093505b85841015612643578035835260019390930192918401918401612625565b50979650505050505050565b600082601f83011261266057600080fd5b81356001600160401b0381111561267957612679612db0565b61268c601f8201601f1916602001612cb8565b8181528460208386010111156126a157600080fd5b816020850160208301376000918101602001919091529392505050565b6000602082840312156126d057600080fd5b6126d9826125ae565b9392505050565b600080604083850312156126f357600080fd5b6126fc836125ae565b915061270a602084016125ae565b90509250929050565b600080600080600060a0868803121561272b57600080fd5b612734866125ae565b9450612742602087016125ae565b935060408601356001600160401b038082111561275e57600080fd5b61276a89838a016125ca565b9450606088013591508082111561278057600080fd5b61278c89838a016125ca565b935060808801359150808211156127a257600080fd5b506127af8882890161264f565b9150509295509295909350565b6000806000606084860312156127d157600080fd5b6127da846125ae565b92506127e8602085016125ae565b9150604084013590509250925092565b600080600080600060a0868803121561281057600080fd5b612819866125ae565b9450612827602087016125ae565b9350604086013592506060860135915060808601356001600160401b0381111561285057600080fd5b6127af8882890161264f565b600080600080600060a0868803121561287457600080fd5b61287d866125ae565b945060208601356001600160401b038082111561289957600080fd5b6128a589838a016125ca565b955060408801359150808211156128bb57600080fd5b6128c789838a016125ca565b945060608801359150808211156128dd57600080fd5b506128ea888289016125ca565b92505060808601356128fb81612dc6565b809150509295509295909350565b6000806040838503121561291c57600080fd5b612925836125ae565b946020939093013593505050565b60008060006060848603121561294857600080fd5b612951846125ae565b95602085013595506040909401359392505050565b600080600080600060a0868803121561297e57600080fd5b612987866125ae565b945060208601359350604086013592506060860135915060808601356128fb81612dc6565b6000602082840312156129be57600080fd5b81516126d981612dc6565b6000602082840312156129db57600080fd5b81356001600160e01b0319811681146126d957600080fd5b600060208284031215612a0557600080fd5b5035919050565b600060208284031215612a1e57600080fd5b5051919050565b600081518084526020808501945080840160005b83811015612a5557815187529582019590820190600101612a39565b509495945050505050565b815160009082906020808601845b83811015612a8a57815185529382019390820190600101612a6e565b50929695505050505050565b6040808252835182820181905260009190606090818501906020808901865b83811015612b0f57815180518652838101516001600160a01b039081168588015288820151168887015286810151878701526080808201519087015260a09081015115159086015260c09094019390820190600101612ab5565b50508683039087015250612b238187612a25565b979650505050505050565b608081526000612b416080830187612a25565b6001600160a01b03861660208401528281036040840152612b628186612a25565b90508281036060840152612b238185612a25565b600060208083528351808285015260005b81811015612ba357858101830151858201604001528201612b87565b81811115612bb5576000604083870101525b50601f01601f1916929092016040019392505050565b60208082526010908201526f14185d5cd8589b194e881c185d5cd95960821b604082015260600190565b6020808252818101527f4f776e61626c653a2063616c6c6572206973206e6f7420746865206f776e6572604082015260600190565b60208082526023908201527f4d61726b65743a20756e697820646174652068617320746f20626520677265616040820152623a32b960e91b606082015260800190565b6020808252602b908201527f496e697469616c697a61626c653a20636f6e7472616374206973206e6f74206960408201526a6e697469616c697a696e6760a81b606082015260800190565b604051601f8201601f191681016001600160401b0381118282101715612ce057612ce0612db0565b604052919050565b60008219821115612cfb57612cfb612d84565b500190565b600082821015612d1257612d12612d84565b500390565b600081612d2657612d26612d84565b506000190190565b600181811c90821680612d4257607f821691505b60208210811415612d6357634e487b7160e01b600052602260045260246000fd5b50919050565b6000600019821415612d7d57612d7d612d84565b5060010190565b634e487b7160e01b600052601160045260246000fd5b634e487b7160e01b600052603260045260246000fd5b634e487b7160e01b600052604160045260246000fd5b801515811461122257600080fdfea2646970667358221220cbc6bed40ac8f44b4374f6a6619925b18d2349629d153e67c627a758932fcdb964736f6c63430008070033",
  "linkReferences": {},
  "deployedLinkReferences": {}
}