{
  "_format": "hh-sol-artifact-1",
  "contractName": "Market",
  "sourceName": "contracts/Market.sol",
  "abi": [
    {
      "anonymous": false,
      "inputs": [
        {
          "indexed": true,
          "internalType": "address",
          "name": "owner",
          "type": "address"
        },
        {
          "indexed": true,
          "internalType": "address",
          "name": "spender",
          "type": "address"
        },
        {
          "indexed": false,
          "internalType": "uint256",
          "name": "value",
          "type": "uint256"
        }
      ],
      "name": "Approval",
      "type": "event"
    },
    {
      "anonymous": false,
      "inputs": [
        {
          "indexed": false,
          "internalType": "uint256[]",
          "name": "id",
          "type": "uint256[]"
        },
        {
          "indexed": true,
          "internalType": "uint256[]",
          "name": "assetId",
          "type": "uint256[]"
        },
        {
          "indexed": true,
          "internalType": "address",
          "name": "seller",
          "type": "address"
        },
        {
          "indexed": false,
          "internalType": "address",
          "name": "nftAddress",
          "type": "address"
        },
        {
          "indexed": false,
          "internalType": "uint256[]",
          "name": "priceInWei",
          "type": "uint256[]"
        },
        {
          "indexed": false,
          "internalType": "uint256[]",
          "name": "expiresAt",
          "type": "uint256[]"
        }
      ],
      "name": "OrderBatchCreated",
      "type": "event"
    },
    {
      "anonymous": false,
      "inputs": [
        {
          "indexed": false,
          "internalType": "uint256",
          "name": "id",
          "type": "uint256"
        },
        {
          "indexed": true,
          "internalType": "uint256",
          "name": "assetId",
          "type": "uint256"
        },
        {
          "indexed": true,
          "internalType": "address",
          "name": "seller",
          "type": "address"
        },
        {
          "indexed": false,
          "internalType": "address",
          "name": "nftAddress",
          "type": "address"
        }
      ],
      "name": "OrderCancelled",
      "type": "event"
    },
    {
      "anonymous": false,
      "inputs": [
        {
          "indexed": false,
          "internalType": "uint256",
          "name": "id",
          "type": "uint256"
        },
        {
          "indexed": true,
          "internalType": "uint256",
          "name": "assetId",
          "type": "uint256"
        },
        {
          "indexed": true,
          "internalType": "address",
          "name": "seller",
          "type": "address"
        },
        {
          "indexed": false,
          "internalType": "address",
          "name": "nftAddress",
          "type": "address"
        },
        {
          "indexed": false,
          "internalType": "uint256",
          "name": "priceInWei",
          "type": "uint256"
        },
        {
          "indexed": false,
          "internalType": "uint256",
          "name": "expiresAt",
          "type": "uint256"
        }
      ],
      "name": "OrderCreated",
      "type": "event"
    },
    {
      "anonymous": false,
      "inputs": [
        {
          "indexed": false,
          "internalType": "uint256",
          "name": "id",
          "type": "uint256"
        },
        {
          "indexed": true,
          "internalType": "uint256",
          "name": "assetId",
          "type": "uint256"
        },
        {
          "indexed": true,
          "internalType": "address",
          "name": "seller",
          "type": "address"
        },
        {
          "indexed": false,
          "internalType": "address",
          "name": "nftAddress",
          "type": "address"
        },
        {
          "indexed": false,
          "internalType": "uint256",
          "name": "totalPrice",
          "type": "uint256"
        },
        {
          "indexed": true,
          "internalType": "address",
          "name": "buyer",
          "type": "address"
        }
      ],
      "name": "OrderSuccessful",
      "type": "event"
    },
    {
      "anonymous": false,
      "inputs": [
        {
          "indexed": true,
          "internalType": "address",
          "name": "previousOwner",
          "type": "address"
        },
        {
          "indexed": true,
          "internalType": "address",
          "name": "newOwner",
          "type": "address"
        }
      ],
      "name": "OwnershipTransferred",
      "type": "event"
    },
    {
      "anonymous": false,
      "inputs": [
        {
          "indexed": false,
          "internalType": "address",
          "name": "account",
          "type": "address"
        }
      ],
      "name": "Paused",
      "type": "event"
    },
    {
      "anonymous": false,
      "inputs": [
        {
          "indexed": true,
          "internalType": "address",
          "name": "from",
          "type": "address"
        },
        {
          "indexed": true,
          "internalType": "address",
          "name": "to",
          "type": "address"
        },
        {
          "indexed": false,
          "internalType": "uint256",
          "name": "value",
          "type": "uint256"
        }
      ],
      "name": "Transfer",
      "type": "event"
    },
    {
      "anonymous": false,
      "inputs": [
        {
          "indexed": false,
          "internalType": "address",
          "name": "account",
          "type": "address"
        }
      ],
      "name": "Unpaused",
      "type": "event"
    },
    {
      "inputs": [
        {
          "internalType": "address",
          "name": "owner",
          "type": "address"
        },
        {
          "internalType": "address",
          "name": "spender",
          "type": "address"
        }
      ],
      "name": "allowance",
      "outputs": [
        {
          "internalType": "uint256",
          "name": "",
          "type": "uint256"
        }
      ],
      "stateMutability": "view",
      "type": "function"
    },
    {
      "inputs": [
        {
          "internalType": "address",
          "name": "spender",
          "type": "address"
        },
        {
          "internalType": "uint256",
          "name": "amount",
          "type": "uint256"
        }
      ],
      "name": "approve",
      "outputs": [
        {
          "internalType": "bool",
          "name": "",
          "type": "bool"
        }
      ],
      "stateMutability": "nonpayable",
      "type": "function"
    },
    {
      "inputs": [
        {
          "internalType": "address",
          "name": "account",
          "type": "address"
        }
      ],
      "name": "balanceOf",
      "outputs": [
        {
          "internalType": "uint256",
          "name": "",
          "type": "uint256"
        }
      ],
      "stateMutability": "view",
      "type": "function"
    },
    {
      "inputs": [
        {
          "internalType": "address",
          "name": "nftAddress",
          "type": "address"
        },
        {
          "internalType": "uint256",
          "name": "orderId",
          "type": "uint256"
        }
      ],
      "name": "cancelOrder",
      "outputs": [],
      "stateMutability": "nonpayable",
      "type": "function"
    },
    {
      "inputs": [
        {
          "internalType": "address",
          "name": "nftAddress",
          "type": "address"
        },
        {
          "internalType": "uint256[]",
          "name": "assetId",
          "type": "uint256[]"
        },
        {
          "internalType": "uint256[]",
          "name": "priceInWei",
          "type": "uint256[]"
        },
        {
          "internalType": "uint256[]",
          "name": "expiresAt",
          "type": "uint256[]"
        },
        {
          "internalType": "bool",
          "name": "exPay",
          "type": "bool"
        }
      ],
      "name": "createBatchOrder",
      "outputs": [],
      "stateMutability": "nonpayable",
      "type": "function"
    },
    {
      "inputs": [
        {
          "internalType": "address",
          "name": "nftAddress",
          "type": "address"
        },
        {
          "internalType": "uint256",
          "name": "id",
          "type": "uint256"
        },
        {
          "internalType": "uint256",
          "name": "priceInWei",
          "type": "uint256"
        },
        {
          "internalType": "uint256",
          "name": "expiresAt",
          "type": "uint256"
        },
        {
          "internalType": "bool",
          "name": "exPay",
          "type": "bool"
        }
      ],
      "name": "createOrder",
      "outputs": [],
      "stateMutability": "nonpayable",
      "type": "function"
    },
    {
      "inputs": [],
      "name": "decimals",
      "outputs": [
        {
          "internalType": "uint8",
          "name": "",
          "type": "uint8"
        }
      ],
      "stateMutability": "view",
      "type": "function"
    },
    {
      "inputs": [
        {
          "internalType": "address",
          "name": "spender",
          "type": "address"
        },
        {
          "internalType": "uint256",
          "name": "subtractedValue",
          "type": "uint256"
        }
      ],
      "name": "decreaseAllowance",
      "outputs": [
        {
          "internalType": "bool",
          "name": "",
          "type": "bool"
        }
      ],
      "stateMutability": "nonpayable",
      "type": "function"
    },
    {
      "inputs": [],
      "name": "idexCount",
      "outputs": [
        {
          "internalType": "uint256",
          "name": "",
          "type": "uint256"
        }
      ],
      "stateMutability": "view",
      "type": "function"
    },
    {
      "inputs": [
        {
          "internalType": "address",
          "name": "spender",
          "type": "address"
        },
        {
          "internalType": "uint256",
          "name": "addedValue",
          "type": "uint256"
        }
      ],
      "name": "increaseAllowance",
      "outputs": [
        {
          "internalType": "bool",
          "name": "",
          "type": "bool"
        }
      ],
      "stateMutability": "nonpayable",
      "type": "function"
    },
    {
      "inputs": [
        {
          "internalType": "address",
          "name": "_tokenAd",
          "type": "address"
        },
        {
          "internalType": "string",
          "name": "secKey",
          "type": "string"
        }
      ],
      "name": "initialize",
      "outputs": [],
      "stateMutability": "nonpayable",
      "type": "function"
    },
    {
      "inputs": [],
      "name": "name",
      "outputs": [
        {
          "internalType": "string",
          "name": "",
          "type": "string"
        }
      ],
      "stateMutability": "view",
      "type": "function"
    },
    {
      "inputs": [
        {
          "internalType": "address",
          "name": "",
          "type": "address"
        },
        {
          "internalType": "address",
          "name": "",
          "type": "address"
        },
        {
          "internalType": "uint256[]",
          "name": "",
          "type": "uint256[]"
        },
        {
          "internalType": "uint256[]",
          "name": "",
          "type": "uint256[]"
        },
        {
          "internalType": "bytes",
          "name": "",
          "type": "bytes"
        }
      ],
      "name": "onERC1155BatchReceived",
      "outputs": [
        {
          "internalType": "bytes4",
          "name": "",
          "type": "bytes4"
        }
      ],
      "stateMutability": "nonpayable",
      "type": "function"
    },
    {
      "inputs": [
        {
          "internalType": "address",
          "name": "",
          "type": "address"
        },
        {
          "internalType": "address",
          "name": "",
          "type": "address"
        },
        {
          "internalType": "uint256",
          "name": "",
          "type": "uint256"
        },
        {
          "internalType": "uint256",
          "name": "",
          "type": "uint256"
        },
        {
          "internalType": "bytes",
          "name": "",
          "type": "bytes"
        }
      ],
      "name": "onERC1155Received",
      "outputs": [
        {
          "internalType": "bytes4",
          "name": "",
          "type": "bytes4"
        }
      ],
      "stateMutability": "nonpayable",
      "type": "function"
    },
    {
      "inputs": [
        {
          "internalType": "uint256",
          "name": "",
          "type": "uint256"
        }
      ],
      "name": "orderByIndex",
      "outputs": [
        {
          "internalType": "uint256",
          "name": "orderID",
          "type": "uint256"
        },
        {
          "internalType": "address",
          "name": "nftAddress",
          "type": "address"
        }
      ],
      "stateMutability": "view",
      "type": "function"
    },
    {
      "inputs": [
        {
          "internalType": "address",
          "name": "",
          "type": "address"
        },
        {
          "internalType": "uint256",
          "name": "",
          "type": "uint256"
        }
      ],
      "name": "orderByOrderId",
      "outputs": [
        {
          "internalType": "uint256",
          "name": "id",
          "type": "uint256"
        },
        {
          "internalType": "address",
          "name": "seller",
          "type": "address"
        },
        {
          "internalType": "address",
          "name": "nftAddress",
          "type": "address"
        },
        {
          "internalType": "uint256",
          "name": "price",
          "type": "uint256"
        },
        {
          "internalType": "uint256",
          "name": "expiresAt",
          "type": "uint256"
        },
        {
          "internalType": "bool",
          "name": "exPayment",
          "type": "bool"
        }
      ],
      "stateMutability": "view",
      "type": "function"
    },
    {
      "inputs": [
        {
          "internalType": "address",
          "name": "",
          "type": "address"
        }
      ],
      "name": "orderCount",
      "outputs": [
        {
          "internalType": "uint256",
          "name": "",
          "type": "uint256"
        }
      ],
      "stateMutability": "view",
      "type": "function"
    },
    {
      "inputs": [
        {
          "internalType": "uint256",
          "name": "last",
          "type": "uint256"
        }
      ],
      "name": "orderList",
      "outputs": [
        {
          "components": [
            {
              "internalType": "uint256",
              "name": "id",
              "type": "uint256"
            },
            {
              "internalType": "address",
              "name": "seller",
              "type": "address"
            },
            {
              "internalType": "address",
              "name": "nftAddress",
              "type": "address"
            },
            {
              "internalType": "uint256",
              "name": "price",
              "type": "uint256"
            },
            {
              "internalType": "uint256",
              "name": "expiresAt",
              "type": "uint256"
            },
            {
              "internalType": "bool",
              "name": "exPayment",
              "type": "bool"
            }
          ],
          "internalType": "struct Market.Order[]",
          "name": "",
          "type": "tuple[]"
        },
        {
          "internalType": "uint256[]",
          "name": "",
          "type": "uint256[]"
        }
      ],
      "stateMutability": "view",
      "type": "function"
    },
    {
      "inputs": [
        {
          "internalType": "address",
          "name": "nftAddress",
          "type": "address"
        },
        {
          "internalType": "uint256",
          "name": "from",
          "type": "uint256"
        },
        {
          "internalType": "uint256",
          "name": "to",
          "type": "uint256"
        }
      ],
      "name": "orderListByAddress",
      "outputs": [
        {
          "components": [
            {
              "internalType": "uint256",
              "name": "id",
              "type": "uint256"
            },
            {
              "internalType": "address",
              "name": "seller",
              "type": "address"
            },
            {
              "internalType": "address",
              "name": "nftAddress",
              "type": "address"
            },
            {
              "internalType": "uint256",
              "name": "price",
              "type": "uint256"
            },
            {
              "internalType": "uint256",
              "name": "expiresAt",
              "type": "uint256"
            },
            {
              "internalType": "bool",
              "name": "exPayment",
              "type": "bool"
            }
          ],
          "internalType": "struct Market.Order[]",
          "name": "",
          "type": "tuple[]"
        },
        {
          "internalType": "uint256[]",
          "name": "",
          "type": "uint256[]"
        }
      ],
      "stateMutability": "view",
      "type": "function"
    },
    {
      "inputs": [],
      "name": "owner",
      "outputs": [
        {
          "internalType": "address",
          "name": "",
          "type": "address"
        }
      ],
      "stateMutability": "view",
      "type": "function"
    },
    {
      "inputs": [],
      "name": "paused",
      "outputs": [
        {
          "internalType": "bool",
          "name": "",
          "type": "bool"
        }
      ],
      "stateMutability": "view",
      "type": "function"
    },
    {
      "inputs": [],
      "name": "payToken",
      "outputs": [
        {
          "internalType": "contract IERC20Upgradeable",
          "name": "",
          "type": "address"
        }
      ],
      "stateMutability": "view",
      "type": "function"
    },
    {
      "inputs": [],
      "name": "renounceOwnership",
      "outputs": [],
      "stateMutability": "nonpayable",
      "type": "function"
    },
    {
      "inputs": [
        {
          "internalType": "address",
          "name": "nftAddress",
          "type": "address"
        },
        {
          "internalType": "address",
          "name": "newOwner",
          "type": "address"
        },
        {
          "internalType": "uint256",
          "name": "assetId",
          "type": "uint256"
        },
        {
          "internalType": "string",
          "name": "secKey",
          "type": "string"
        }
      ],
      "name": "safeExecuteOrder",
      "outputs": [],
      "stateMutability": "nonpayable",
      "type": "function"
    },
    {
      "inputs": [
        {
          "internalType": "bytes4",
          "name": "interfaceId",
          "type": "bytes4"
        }
      ],
      "name": "supportsInterface",
      "outputs": [
        {
          "internalType": "bool",
          "name": "",
          "type": "bool"
        }
      ],
      "stateMutability": "view",
      "type": "function"
    },
    {
      "inputs": [],
      "name": "symbol",
      "outputs": [
        {
          "internalType": "string",
          "name": "",
          "type": "string"
        }
      ],
      "stateMutability": "view",
      "type": "function"
    },
    {
      "inputs": [],
      "name": "totalSupply",
      "outputs": [
        {
          "internalType": "uint256",
          "name": "",
          "type": "uint256"
        }
      ],
      "stateMutability": "view",
      "type": "function"
    },
    {
      "inputs": [
        {
          "internalType": "address",
          "name": "to",
          "type": "address"
        },
        {
          "internalType": "uint256",
          "name": "amount",
          "type": "uint256"
        }
      ],
      "name": "transfer",
      "outputs": [
        {
          "internalType": "bool",
          "name": "",
          "type": "bool"
        }
      ],
      "stateMutability": "nonpayable",
      "type": "function"
    },
    {
      "inputs": [
        {
          "internalType": "address",
          "name": "from",
          "type": "address"
        },
        {
          "internalType": "address",
          "name": "to",
          "type": "address"
        },
        {
          "internalType": "uint256",
          "name": "amount",
          "type": "uint256"
        }
      ],
      "name": "transferFrom",
      "outputs": [
        {
          "internalType": "bool",
          "name": "",
          "type": "bool"
        }
      ],
      "stateMutability": "nonpayable",
      "type": "function"
    },
    {
      "inputs": [
        {
          "internalType": "address",
          "name": "newOwner",
          "type": "address"
        }
      ],
      "name": "transferOwnership",
      "outputs": [],
      "stateMutability": "nonpayable",
      "type": "function"
    }
  ],
  "bytecode": "0x608060405234801561001057600080fd5b5061300d806100206000396000f3fe608060405234801561001057600080fd5b50600436106101da5760003560e01c8063713d856b11610104578063a457c2d7116100a2578063dd62ed3e11610071578063dd62ed3e146104e7578063f23a6e6114610520578063f2fde38b1461053f578063f399e22e1461055257600080fd5b8063a457c2d714610476578063a9059cbb14610489578063bc197c811461049c578063d2edb146146104d457600080fd5b80638da5cb5b116100de5780638da5cb5b14610421578063931ab4541461044757806395d89b411461045a57806396336b301461046257600080fd5b8063713d856b146103e5578063715018a61461040657806376f75e7f1461040e57600080fd5b806331936a9a1161017c5780636a2061371161014b5780636a2061371461037e5780636ba5fcfa146103915780636edc69b9146103b257806370a08231146103bc57600080fd5b806331936a9a146102fd578063395093511461034b578063494efa361461035e5780635c975abb1461037357600080fd5b8063095ea7b3116101b8578063095ea7b3146102b657806318160ddd146102c957806323b872dd146102db578063313ce567146102ee57600080fd5b806301d45b49146101df57806301ffc9a71461027e57806306fdde03146102a1575b600080fd5b61023e6101ed366004612b39565b61016160209081526000928352604080842090915290825290208054600182015460028301546003840154600485015460059095015493946001600160a01b03938416949290931692909160ff1686565b604080519687526001600160a01b039586166020880152939094169285019290925260608401526080830152151560a082015260c0015b60405180910390f35b61029161028c366004612bf9565b610565565b6040519015158152602001610275565b6102a961059c565b6040516102759190612dd2565b6102916102c4366004612b39565b61062e565b6035545b604051908152602001610275565b6102916102e936600461292c565b610646565b60405160128152602001610275565b61032e61030b366004612c23565b61016260205260009081526040902080546001909101546001600160a01b031682565b604080519283526001600160a01b03909116602083015201610275565b610291610359366004612b39565b61066a565b61037161036c366004612968565b6106a9565b005b60fb5460ff16610291565b61037161038c366004612b39565b6106ea565b6103a461039f366004612b63565b61071c565b604051610275929190612cf2565b6102cd6101645481565b6102cd6103ca36600461282e565b6001600160a01b031660009081526033602052604090205490565b6102cd6103f336600461282e565b6101636020526000908152604090205481565b610371610b0f565b6103a461041c366004612c23565b610b76565b61012d546001600160a01b03165b6040516001600160a01b039091168152602001610275565b610371610455366004612a3a565b610f82565b6102a9610fb9565b61015f5461042f906001600160a01b031681565b610291610484366004612b39565b610fc8565b610291610497366004612b39565b61105a565b6104bb6104aa366004612883565b63bc197c8160e01b95945050505050565b6040516001600160e01b03199091168152602001610275565b6103716104e2366004612b96565b611068565b6102cd6104f5366004612850565b6001600160a01b03918216600090815260346020908152604080832093909416825291909152205490565b6104bb61052e3660046129d6565b63f23a6e6160e01b95945050505050565b61037161054d36600461282e565b611098565b610371610560366004612ae7565b611164565b60006001600160e01b03198216630271189760e51b148061059657506301ffc9a760e01b6001600160e01b03198316145b92915050565b6060603680546105ab90612f31565b80601f01602080910402602001604051908101604052809291908181526020018280546105d790612f31565b80156106245780601f106105f957610100808354040283529160200191610624565b820191906000526020600020905b81548152906001019060200180831161060757829003601f168201915b5050505050905090565b60003361063c818585611281565b5060019392505050565b6000336106548582856113a5565b61065f858585611431565b506001949350505050565b3360008181526034602090815260408083206001600160a01b038716845290915281205490919061063c90829086906106a4908790612ecc565b611281565b60fb5460ff16156106d55760405162461bcd60e51b81526004016106cc90612e27565b60405180910390fd5b6106e285858585856115ff565b505050505050565b60fb5460ff161561070d5760405162461bcd60e51b81526004016106cc90612e27565b6107178282611a14565b505050565b6060808383116107645760405162461bcd60e51b81526020600482015260136024820152722a379039b437bab632103132903434b3b432b960691b60448201526064016106cc565b60006107708585612f03565b90506000816001600160401b0381111561078c5761078c612fb3565b6040519080825280602002602001820160405280156107c557816020015b6107b261268c565b8152602001906001900390816107aa5790505b5090506000826001600160401b038111156107e2576107e2612fb3565b60405190808252806020026020018201604052801561080b578160200160208202803683370190505b5090506000875b8781116109af576001600160a01b03808b16600090815261016160209081526040808320858452825291829020825160c0810184528154815260018201548516928101929092526002810154909316918101919091526003820154606082015260048201546080820181905260059092015460ff16151560a0820152901561099c57428160800151111561099c57604081810151602083015183519251627eeac760e11b81526001600160a01b0391821660048201526024810193909352909160009183169062fdd58e9060440160206040518083038186803b1580156108f857600080fd5b505afa15801561090c573d6000803e3d6000fd5b505050506040513d601f19601f820116820180604052508101906109309190612c3c565b90508015610999578287868151811061094b5761094b612f9d565b602002602001018190525061016260008581526020019081526020016000206000015486868151811061098057610980612f9d565b60209081029190910101528461099581612f6c565b9550505b50505b50806109a781612f6c565b915050610812565b50838114156109c557509093509150610b079050565b8015610b02576000816001600160401b038111156109e5576109e5612fb3565b604051908082528060200260200182016040528015610a1e57816020015b610a0b61268c565b815260200190600190039081610a035790505b5090506000826001600160401b03811115610a3b57610a3b612fb3565b604051908082528060200260200182016040528015610a64578160200160208202803683370190505b50905060005b83811015610af257858181518110610a8457610a84612f9d565b6020026020010151838281518110610a9e57610a9e612f9d565b6020026020010181905250848181518110610abb57610abb612f9d565b6020026020010151828281518110610ad557610ad5612f9d565b602090810291909101015280610aea81612f6c565b915050610a6a565b509096509450610b079350505050565b505050505b935093915050565b61012d546001600160a01b03163314610b6a5760405162461bcd60e51b815260206004820181905260248201527f4f776e61626c653a2063616c6c6572206973206e6f7420746865206f776e657260448201526064016106cc565b610b746000611c0d565b565b60608060008311610bc95760405162461bcd60e51b815260206004820152601760248201527f20696e7075742073686f756c642062652068696768657200000000000000000060448201526064016106cc565b6000836001600160401b03811115610be357610be3612fb3565b604051908082528060200260200182016040528015610c1c57816020015b610c0961268c565b815260200190600190039081610c015790505b5090506000846001600160401b03811115610c3957610c39612fb3565b604051908082528060200260200182016040528015610c62578160200160208202803683370190505b50610164549091506000905b8015610e2b576000818152610162602090815260408083206001808201546001600160a01b03908116865261016185528386209254865291845293829020825160c0810184528154815294810154821693850193909352600283015416908301526003810154606083015260048101546080830181905260059091015460ff16151560a083015215610e18574281608001511115610e1857604081810151602083015183519251627eeac760e11b81526001600160a01b0391821660048201526024810193909352909160009183169062fdd58e9060440160206040518083038186803b158015610d5e57600080fd5b505afa158015610d72573d6000803e3d6000fd5b505050506040513d601f19601f82011682018060405250810190610d969190612c3c565b90508015610dff5782878681518110610db157610db1612f9d565b6020026020010181905250610162600085815260200190815260200160002060000154868681518110610de657610de6612f9d565b602090810291909101015284610dfb81612f6c565b9550505b89610e0b866001612ecc565b10610e1557600093505b50505b5080610e2381612f1a565b915050610c6e565b5085811415610e3f57509094909350915050565b8015610f7a576000816001600160401b03811115610e5f57610e5f612fb3565b604051908082528060200260200182016040528015610e9857816020015b610e8561268c565b815260200190600190039081610e7d5790505b5090506000826001600160401b03811115610eb557610eb5612fb3565b604051908082528060200260200182016040528015610ede578160200160208202803683370190505b50905060005b83811015610f6c57858181518110610efe57610efe612f9d565b6020026020010151838281518110610f1857610f18612f9d565b6020026020010181905250848181518110610f3557610f35612f9d565b6020026020010151828281518110610f4f57610f4f612f9d565b602090810291909101015280610f6481612f6c565b915050610ee4565b509097909650945050505050565b505050915091565b60fb5460ff1615610fa55760405162461bcd60e51b81526004016106cc90612e27565b610fb28585858585611c60565b5050505050565b6060603780546105ab90612f31565b3360008181526034602090815260408083206001600160a01b03871684529091528120549091908381101561104d5760405162461bcd60e51b815260206004820152602560248201527f45524332303a2064656372656173656420616c6c6f77616e63652062656c6f77604482015264207a65726f60d81b60648201526084016106cc565b61065f8286868403611281565b60003361063c818585611431565b60fb5460ff161561108b5760405162461bcd60e51b81526004016106cc90612e27565b610fb285858585856122a8565b61012d546001600160a01b031633146110f35760405162461bcd60e51b815260206004820181905260248201527f4f776e61626c653a2063616c6c6572206973206e6f7420746865206f776e657260448201526064016106cc565b6001600160a01b0381166111585760405162461bcd60e51b815260206004820152602660248201527f4f776e61626c653a206e6577206f776e657220697320746865207a65726f206160448201526564647265737360d01b60648201526084016106cc565b61116181611c0d565b50565b600054610100900460ff1661117f5760005460ff1615611183565b303b155b6111e65760405162461bcd60e51b815260206004820152602e60248201527f496e697469616c697a61626c653a20636f6e747261637420697320616c72656160448201526d191e481a5b9a5d1a585b1a5e995960921b60648201526084016106cc565b600054610100900460ff16158015611208576000805461ffff19166101011790555b61015f80546001600160a01b0319166001600160a01b03861617905561122c612632565b61012d546001600160a01b0316838360405160200161124d93929190612c90565b60408051601f19818403018152919052805160209091012061016055801561127b576000805461ff00191690555b50505050565b6001600160a01b0383166112e35760405162461bcd60e51b8152602060048201526024808201527f45524332303a20617070726f76652066726f6d20746865207a65726f206164646044820152637265737360e01b60648201526084016106cc565b6001600160a01b0382166113445760405162461bcd60e51b815260206004820152602260248201527f45524332303a20617070726f766520746f20746865207a65726f206164647265604482015261737360f01b60648201526084016106cc565b6001600160a01b0383811660008181526034602090815260408083209487168084529482529182902085905590518481527f8c5be1e5ebec7d5bd14f71427d1e84f3dd0314c0f7b2291e5b200ac8c7c3b925910160405180910390a3505050565b6001600160a01b03838116600090815260346020908152604080832093861683529290522054600019811461127b57818110156114245760405162461bcd60e51b815260206004820152601d60248201527f45524332303a20696e73756666696369656e7420616c6c6f77616e636500000060448201526064016106cc565b61127b8484848403611281565b6001600160a01b0383166114955760405162461bcd60e51b815260206004820152602560248201527f45524332303a207472616e736665722066726f6d20746865207a65726f206164604482015264647265737360d81b60648201526084016106cc565b6001600160a01b0382166114f75760405162461bcd60e51b815260206004820152602360248201527f45524332303a207472616e7366657220746f20746865207a65726f206164647260448201526265737360e81b60648201526084016106cc565b6001600160a01b0383166000908152603360205260409020548181101561156f5760405162461bcd60e51b815260206004820152602660248201527f45524332303a207472616e7366657220616d6f756e7420657863656564732062604482015265616c616e636560d01b60648201526084016106cc565b6001600160a01b038085166000908152603360205260408082208585039055918516815290812080548492906115a6908490612ecc565b92505081905550826001600160a01b0316846001600160a01b03167fddf252ad1be2c89b69c2b068fc378daa952ba7f163c4a11628f55a4df523b3ef846040516115f291815260200190565b60405180910390a361127b565b61160761268c565b61012d5433906000906001600160a01b0316858560405160200161162d93929190612c90565b60408051601f1981840301815282825280516020918201206001600160a01b03808d16600090815261016184528481208c8252845284902060c0860185528054865260018101548216938601939093526002830154169284019290925260038101546060840152600481015460808401526005015460ff16151560a08301526101605490925089919083146117045760405162461bcd60e51b815260206004820152601a60248201527f596f7520646f6e742068617665206175746f72697a6174696f6e00000000000060448201526064016106cc565b80516117415760405162461bcd60e51b815260206004820152600c60248201526b4e4f5420464f522053414c4560a01b60448201526064016106cc565b886001600160a01b031681602001516001600160a01b0316141561179e5760405162461bcd60e51b81526020600482015260146024820152731029a2a72222a91022a8902722ab9027aba722a960611b60448201526064016106cc565b42816080015110156117dc5760405162461bcd60e51b81526020600482015260076024820152661156141254915160ca1b60448201526064016106cc565b6020810151604051627eeac760e11b81526001600160a01b039182166004820152602481018a905260009184169062fdd58e9060440160206040518083038186803b15801561182a57600080fd5b505afa15801561183e573d6000803e3d6000fd5b505050506040513d601f19601f820116820180604052508101906118629190612c3c565b1161189f5760405162461bcd60e51b815260206004820152600d60248201526c4e4f5420415641494c41424c4560981b60448201526064016106cc565b6001600160a01b03808b166000908152610161602090815260408083208c84528252808320838155600180820180546001600160a01b0319908116909155600283018054909116905560038083018690556004808401969096556005909201805460ff191690559286015186519251637921219560e11b8152908616948101949094528d851660248501526044840191909152606483019190915260a0608483015260a48201526203078360ec1b60c48201529083169063f242432a9060e401600060405180830381600087803b15801561197957600080fd5b505af115801561198d573d6000803e3d6000fd5b50505050836001600160a01b031681602001516001600160a01b0316897f379cbdfef41a46f312a20ff1b22852d767c763cadb2ef0a5a42ca572a66a50de84600001518e86606001516040516119ff939291909283526001600160a01b03919091166020830152604082015260600190565b60405180910390a49998505050505050505050565b611a1c61268c565b6001600160a01b03838116600090815261016160209081526040808320868452825291829020825160c08101845281548082526001830154861693820193909352600282015490941692840192909252600382015460608401526004820154608084015260059091015460ff16151560a0830152339190611ad55760405162461bcd60e51b8152602060048201526013602482015272105cdcd95d081b9bdd081c1d589b1a5cda1959606a1b60448201526064016106cc565b816001600160a01b031681602001516001600160a01b03161480611b07575061012d546001600160a01b038381169116145b611b535760405162461bcd60e51b815260206004820152601960248201527f4d61726b65743a20556e617574686f72697a656420757365720000000000000060448201526064016106cc565b80516020808301516040808501516001600160a01b038a8116600090815261016186528381208b825286528381208181556001810180546001600160a01b03199081169091556002820180549091169055600381018290556004810191909155600501805460ff1916905582518a8152818316958101959095529293909284169185917f98f89a2b436b69e0676a7b931052dd280cc0625eb577fb5df17e22e2d3474542910160405180910390a350919695505050505050565b61012d80546001600160a01b038381166001600160a01b0319831681179093556040519116919082907f8be0079c531659141344cd1fd0a4f28419497f9722a3daafe3b4186f6b6457e090600090a35050565b600083516001600160401b03811115611c7b57611c7b612fb3565b604051908082528060200260200182016040528015611ca4578160200160208202803683370190505b50845186519192503391889114611cf65760405162461bcd60e51b815260206004820152601660248201527506c656e677468206e6f74206d617463682041202620560541b60448201526064016106cc565b8451875114611d405760405162461bcd60e51b81526020600482015260166024820152756c656e677468206e6f74206d6174636820412026204560501b60448201526064016106cc565b60005b875181101561224057600042878381518110611d6157611d61612f9d565b602002602001015162015180611d779190612ee4565b611d819190612ecc565b90506000836001600160a01b031662fdd58e868c8681518110611da657611da6612f9d565b60200260200101516040518363ffffffff1660e01b8152600401611ddf9291906001600160a01b03929092168252602082015260400190565b60206040518083038186803b158015611df757600080fd5b505afa158015611e0b573d6000803e3d6000fd5b505050506040513d601f19601f82011682018060405250810190611e2f9190612c3c565b905060008111611e775760405162461bcd60e51b81526020600482015260136024820152724173736574206e6f7420617661696c61626c6560681b60448201526064016106cc565b60405163e985e9c560e01b81526001600160a01b03868116600483015230602483015285169063e985e9c59060440160206040518083038186803b158015611ebe57600080fd5b505afa158015611ed2573d6000803e3d6000fd5b505050506040513d601f19601f82011682018060405250810190611ef69190612bdc565b611f425760405162461bcd60e51b815260206004820152601e60248201527f54686520636f6e7472616374206973206e6f7420617574686f72697a6564000060448201526064016106cc565b6000898481518110611f5657611f56612f9d565b602002602001015111611fab5760405162461bcd60e51b815260206004820152601d60248201527f50726963652073686f756c6420626520626967676572207468616e203000000060448201526064016106cc565b6000888481518110611fbf57611fbf612f9d565b6020026020010151116120145760405162461bcd60e51b815260206004820152601a60248201527f4461797320696e2066757475726520697320726571756972656400000000000060448201526064016106cc565b6001600160a01b038b1660009081526101636020526040812080549161203983612f6c565b90915550506001600160a01b038b16600090815261016360205260409020548651819088908690811061206e5761206e612f9d565b6020026020010181815250506040518060c001604052808c868151811061209757612097612f9d565b60200260200101518152602001876001600160a01b031681526020018d6001600160a01b031681526020018b86815181106120d4576120d4612f9d565b6020026020010151815260200184815260200189151581525061016160008e6001600160a01b03166001600160a01b0316815260200190815260200160002060008381526020019081526020016000206000820151816000015560208201518160010160006101000a8154816001600160a01b0302191690836001600160a01b0316021790555060408201518160020160006101000a8154816001600160a01b0302191690836001600160a01b03160217905550606082015181600301556080820151816004015560a08201518160050160006101000a81548160ff02191690831515021790555090505061016460008154809291906121d390612f6c565b90915550506040805180820182529182526001600160a01b038d8116602080850191825261016454600090815261016290915292909220925183559051600190920180546001600160a01b031916929091169190911790555081905061223881612f6c565b915050611d43565b50816001600160a01b0316876040516122599190612cbc565b60405180910390207f0ad78710727c92732061306b2a1096ec6f8a2edc3b146b377e0bfde637641f47858b8a8a6040516122969493929190612d8a565b60405180910390a35050505050505050565b600033604051627eeac760e11b81526001600160a01b0380831660048301526024820188905291925087916000919083169062fdd58e9060440160206040518083038186803b1580156122fa57600080fd5b505afa15801561230e573d6000803e3d6000fd5b505050506040513d601f19601f820116820180604052508101906123329190612c3c565b90506000811161237a5760405162461bcd60e51b81526020600482015260136024820152724173736574206e6f7420617661696c61626c6560681b60448201526064016106cc565b60405163e985e9c560e01b81526001600160a01b03848116600483015230602483015283169063e985e9c59060440160206040518083038186803b1580156123c157600080fd5b505afa1580156123d5573d6000803e3d6000fd5b505050506040513d601f19601f820116820180604052508101906123f99190612bdc565b6124455760405162461bcd60e51b815260206004820152601e60248201527f54686520636f6e7472616374206973206e6f7420617574686f72697a6564000060448201526064016106cc565b4285116124945760405162461bcd60e51b815260206004820152601a60248201527f74696d6520696e2066757475726520697320726571756972656400000000000060448201526064016106cc565b6001600160a01b0388166000908152610163602052604081208054916124b983612f6c565b90915550506001600160a01b0380891660008181526101636020908152604080832054815160c0810183528d8152898716818501908152818401878152606083018f8152608084018f81528e151560a086019081529989526101618852868920868a52909752948720925183559051600183018054918a166001600160a01b0319928316179055905160028301805491909916911617909655905160038601559051600485015591516005909301805493151560ff19909416939093179092556101648054919261258983612f6c565b90915550506040805180820182528281526001600160a01b038b8116602080840182815261016454600090815261016283528690209451855551600190940180546001600160a01b03191694841694909417909355835185815292830152918101899052606081018890529085169089907f3692c2e473686659b62de88a2ceb823a0585c86bf37d11ac339fcd06e497d5c89060800160405180910390a3505050505050505050565b600054610100900460ff166126595760405162461bcd60e51b81526004016106cc90612e51565b610b74600054610100900460ff166126835760405162461bcd60e51b81526004016106cc90612e51565b610b7433611c0d565b6040518060c001604052806000815260200160006001600160a01b0316815260200160006001600160a01b0316815260200160008152602001600081526020016000151581525090565b80356001600160a01b03811681146126ed57600080fd5b919050565b600082601f83011261270357600080fd5b813560206001600160401b0382111561271e5761271e612fb3565b8160051b61272d828201612e9c565b83815282810190868401838801850189101561274857600080fd5b600093505b8584101561276b57803583526001939093019291840191840161274d565b50979650505050505050565b600082601f83011261278857600080fd5b81356001600160401b038111156127a1576127a1612fb3565b6127b4601f8201601f1916602001612e9c565b8181528460208386010111156127c957600080fd5b816020850160208301376000918101602001919091529392505050565b60008083601f8401126127f857600080fd5b5081356001600160401b0381111561280f57600080fd5b60208301915083602082850101111561282757600080fd5b9250929050565b60006020828403121561284057600080fd5b612849826126d6565b9392505050565b6000806040838503121561286357600080fd5b61286c836126d6565b915061287a602084016126d6565b90509250929050565b600080600080600060a0868803121561289b57600080fd5b6128a4866126d6565b94506128b2602087016126d6565b935060408601356001600160401b03808211156128ce57600080fd5b6128da89838a016126f2565b945060608801359150808211156128f057600080fd5b6128fc89838a016126f2565b9350608088013591508082111561291257600080fd5b5061291f88828901612777565b9150509295509295909350565b60008060006060848603121561294157600080fd5b61294a846126d6565b9250612958602085016126d6565b9150604084013590509250925092565b60008060008060006080868803121561298057600080fd5b612989866126d6565b9450612997602087016126d6565b93506040860135925060608601356001600160401b038111156129b957600080fd5b6129c5888289016127e6565b969995985093965092949392505050565b600080600080600060a086880312156129ee57600080fd5b6129f7866126d6565b9450612a05602087016126d6565b9350604086013592506060860135915060808601356001600160401b03811115612a2e57600080fd5b61291f88828901612777565b600080600080600060a08688031215612a5257600080fd5b612a5b866126d6565b945060208601356001600160401b0380821115612a7757600080fd5b612a8389838a016126f2565b95506040880135915080821115612a9957600080fd5b612aa589838a016126f2565b94506060880135915080821115612abb57600080fd5b50612ac8888289016126f2565b9250506080860135612ad981612fc9565b809150509295509295909350565b600080600060408486031215612afc57600080fd5b612b05846126d6565b925060208401356001600160401b03811115612b2057600080fd5b612b2c868287016127e6565b9497909650939450505050565b60008060408385031215612b4c57600080fd5b612b55836126d6565b946020939093013593505050565b600080600060608486031215612b7857600080fd5b612b81846126d6565b95602085013595506040909401359392505050565b600080600080600060a08688031215612bae57600080fd5b612bb7866126d6565b94506020860135935060408601359250606086013591506080860135612ad981612fc9565b600060208284031215612bee57600080fd5b815161284981612fc9565b600060208284031215612c0b57600080fd5b81356001600160e01b03198116811461284957600080fd5b600060208284031215612c3557600080fd5b5035919050565b600060208284031215612c4e57600080fd5b5051919050565b600081518084526020808501945080840160005b83811015612c8557815187529582019590820190600101612c69565b509495945050505050565b6bffffffffffffffffffffffff198460601b168152818360148301376000910160140190815292915050565b815160009082906020808601845b83811015612ce657815185529382019390820190600101612cca565b50929695505050505050565b6040808252835182820181905260009190606090818501906020808901865b83811015612d6b57815180518652838101516001600160a01b039081168588015288820151168887015286810151878701526080808201519087015260a09081015115159086015260c09094019390820190600101612d11565b50508683039087015250612d7f8187612c55565b979650505050505050565b608081526000612d9d6080830187612c55565b6001600160a01b03861660208401528281036040840152612dbe8186612c55565b90508281036060840152612d7f8185612c55565b600060208083528351808285015260005b81811015612dff57858101830151858201604001528201612de3565b81811115612e11576000604083870101525b50601f01601f1916929092016040019392505050565b60208082526010908201526f14185d5cd8589b194e881c185d5cd95960821b604082015260600190565b6020808252602b908201527f496e697469616c697a61626c653a20636f6e7472616374206973206e6f74206960408201526a6e697469616c697a696e6760a81b606082015260800190565b604051601f8201601f191681016001600160401b0381118282101715612ec457612ec4612fb3565b604052919050565b60008219821115612edf57612edf612f87565b500190565b6000816000190483118215151615612efe57612efe612f87565b500290565b600082821015612f1557612f15612f87565b500390565b600081612f2957612f29612f87565b506000190190565b600181811c90821680612f4557607f821691505b60208210811415612f6657634e487b7160e01b600052602260045260246000fd5b50919050565b6000600019821415612f8057612f80612f87565b5060010190565b634e487b7160e01b600052601160045260246000fd5b634e487b7160e01b600052603260045260246000fd5b634e487b7160e01b600052604160045260246000fd5b801515811461116157600080fdfea2646970667358221220a2f6966338cb66df18c781cd0b03b832e70233c574ef811017173623755896bf64736f6c63430008070033",
  "linkReferences": {},
  "deployedLinkReferences": {}
}